:020000040800F2
:10000000000002209D2F0008992D00089F2D000858
:10001000A52D0008AB2D0008B12D00080000000040
:10002000000000000000000000000000D19B00085C
:10003000B72D000800000000219E0008717500081F
:10004000ED2F0008ED2F0008ED2F0008ED2F000820
:10005000ED2F0008ED2F0008ED2F0008ED2F000810
:10006000ED2F0008ED2F0008ED2F0008ED2F000800
:10007000ED2F0008ED2F0008ED2F0008ED2F0008F0
:10008000ED2F0008ED2F0008ED2F0008ED2F0008E0
:10009000ED2F0008ED2F0008ED2F0008ED2F0008D0
:1000A000ED2F0008ED2F0008ED2F0008ED2F0008C0
:1000B000ED2F0008ED2F0008ED2F0008ED2F0008B0
:1000C000ED2F0008ED2F0008ED2F0008ED2F0008A0
:1000D000ED2F0008ED2F0008ED2F0008C52D0008BA
:1000E000ED2F0008ED2F0008ED2F0008ED2F000880
:1000F000ED2F0008ED2F0008ED2F0008ED2F000870
:10010000ED2F0008ED2F0008ED2F0008ED2F00085F
:10011000ED2F0008ED2F0008ED2F0008D92D000865
:10012000ED2F0008ED2F0008ED2F0008ED2F00083F
:10013000ED2F0008ED2F0008ED2F0008ED2F00082F
:10014000ED2F0008ED2F0008ED2F0008ED2F00081F
:10015000ED2F0008ED2F0008ED2F0008ED2F00080F
:10016000ED2F0008ED2F0008ED2F0008ED2F0008FF
:10017000ED2F0008ED2F0008ED2F00080000000013
:08018000ED2F0008ED2F00082F
:1001900010B5054C237833B9044B13B10448AFF3C1
:1001A00000800123237010BD080200200000000021
:1001B000FCD7000808B5034B1BB103490348AFF354
:1001C000008008BD000000000C020020FCD70008E1
:1001D000034613F8012B002AFBD1181A0138704787
:1001E00001F0FF01102A2BDB10F0070F08D010F8E8
:1001F000013B013A8B422DD010F0070F42B3F6D1EC
:10020000F0B441EA012141EA014122F007047FF004
:1002100000070023F0E80256083C85EA010586EA5B
:10022000010685FA47F5A3FA87F586FA47F6A5FA97
:1002300087F68EB9EED1F0BC01F0FF0102F00702A3
:1002400032B110F8013B013A83EA010313B1F8D14E
:100250000020704701387047002D06BF354603382F
:10026000073815F0010F07D1013015F4807F02BF68
:10027000013015F4C03F0130F0BC0138704700BFB9
:1002800081F0004102E000BF83F0004330B54FEA47
:1002900041044FEA430594EA050F08BF90EA020FB4
:1002A0001FBF54EA000C55EA020C7FEA645C7FEA47
:1002B000655C00F0E2804FEA5454D4EB5555B8BF6A
:1002C0006D420CDD2C4480EA020281EA030382EADB
:1002D000000083EA010180EA020281EA0303362D6D
:1002E00088BF30BD11F0004F4FEA01314FF4801C40
:1002F0004CEA113102D0404261EB410113F0004F52
:100300004FEA03334CEA133302D0524263EB430308
:1003100094EA050F00F0A780A4F10104D5F1200EA6
:100320000DDB02FA0EFC22FA05F2801841F1000101
:1003300003FA0EF2801843FA05F359410EE0A5F1D5
:1003400020050EF1200E012A03FA0EFC28BF4CF006
:10035000020C43FA05F3C01851EBE37101F00045BC
:1003600007D54FF0000EDCF1000C7EEB00006EEBC9
:100370000101B1F5801F1BD3B1F5001F0CD3490853
:100380005FEA30004FEA3C0C04F101044FEA4452AA
:1003900012F5800F80F09A80BCF1004F08BF5FEA31
:1003A000500C50F1000041EB045141EA050130BD11
:1003B0005FEA4C0C404141EB0101013C28BFB1F523
:1003C000801FE9D291F0000F04BF01460020B1FA6E
:1003D00081F308BF2033A3F10B03B3F120020CDA41
:1003E0000C3208DD02F1140CC2F10C0201FA0CF01F
:1003F00021FA02F10CE002F11402D8BFC2F1200C84
:1004000001FA02F120FA0CFCDCBF41EA0C01904039
:10041000E41AA2BF01EB0451294330BD6FEA040482
:100420001F3C1CDA0C340EDC04F11404C4F120026D
:1004300020FA04F001FA02F340EA030021FA04F37F
:1004400045EA030130BDC4F10C04C4F1200220FAD6
:1004500002F001FA04F340EA0300294630BD21FA14
:1004600004F0294630BD94F0000F83F4801306BFDA
:1004700081F480110134013D4EE77FEA645C18BFCE
:100480007FEA655C29D094EA050F08BF90EA020F65
:1004900005D054EA000C04BF1946104630BD91EA5D
:1004A000030F1EBF0021002030BD5FEA545C05D160
:1004B0004000494128BF41F0004130BD14F580049F
:1004C0003CBF01F5801130BD01F0004545F0FE4113
:1004D00041F470014FF0000030BD7FEA645C1ABF48
:1004E000194610467FEA655C1CBF0B46024650EA7F
:1004F000013406BF52EA033591EA030F41F40021AB
:1005000030BD00BF90F0000F04BF0021704730B530
:100510004FF4806404F132044FF000054FF0000105
:1005200050E700BF90F0000F04BF0021704730B5C6
:100530004FF4806404F1320410F0004548BF40429B
:100540004FF000013EE700BF42004FEAE2014FEAF0
:1005500031014FEA02701FBF12F07F4393F07F4FCB
:1005600081F06051704732F07F4208BF704793F0CE
:100570007F4F04BF41F40021704730B54FF46074E1
:1005800001F0004521F000411CE700BF50EA0102E4
:1005900008BF704730B54FF000050AE050EA01028D
:1005A00008BF704730B511F0004502D5404261EBFD
:1005B00041014FF4806404F132045FEA915C3FF43E
:1005C000D8AE4FF003025FEADC0C18BF03325FEADB
:1005D000DC0C18BF033202EBDC02C2F1200300FA8C
:1005E00003FC20FA02F001FA03FE40EA0E0021FAB1
:1005F00002F11444BDE600BF70B54FF0FF0C4CF49F
:10060000E06C1CEA11541DBF1CEA135594EA0C0F50
:1006100095EA0C0F00F0DEF82C4481EA030621EA8B
:100620004C5123EA4C5350EA013518BF52EA0335C6
:1006300041F4801143F4801338D0A0FB02CE4FF078
:100640000005E1FB02E506F00042E0FB03E54FF0A8
:100650000006E1FB03569CF0000F18BF4EF0010EA0
:10066000A4F1FF04B6F5007F64F5407404D25FEA9C
:100670004E0E6D4146EB060642EAC62141EA55514F
:100680004FEAC52040EA5E504FEACE2EB4F1FD0C91
:1006900088BFBCF5E06F1ED8BEF1004F08BF5FEA0F
:1006A000500E50F1000041EB045170BD06F00046C1
:1006B00046EA010140EA020081EA0301B4EB5C046E
:1006C000C2BFD4EB0C0541EA045170BD41F4801166
:1006D0004FF0000E013C00F3AB8014F1360FDEBF8B
:1006E000002001F0004170BDC4F10004203C35DA67
:1006F0000C341BDC04F11404C4F1200500FA05F3EA
:1007000020FA04F001FA05F240EA020001F000428A
:1007100021F0004110EBD37021FA04F642EB060100
:100720005EEA430E08BF20EAD37070BDC4F10C042A
:10073000C4F1200500FA04F320FA05F001FA04F2EE
:1007400040EA020001F0004110EBD37041F10001DA
:100750005EEA430E08BF20EAD37070BDC4F12005E5
:1007600000FA05F24EEA020E20FA04F301FA05F24D
:1007700043EA020321FA04F001F0004121FA04F2F5
:1007800020EA020000EBD3705EEA430E08BF20EAC5
:10079000D37070BD94F0000F0FD101F000464000FF
:1007A00041EB010111F4801F08BF013CF7D041EA81
:1007B000060195F0000F18BF704703F00046520085
:1007C00043EB030313F4801F08BF013DF7D043EA56
:1007D0000603704794EA0C0F0CEA135518BF95EA0C
:1007E0000C0F0CD050EA410618BF52EA4306D1D193
:1007F00081EA030101F000414FF0000070BD50EAB2
:10080000410606BF1046194652EA430619D094EA3B
:100810000C0F02D150EA013613D195EA0C0F05D125
:1008200052EA03361CBF104619460AD181EA030179
:1008300001F0004141F0FE4141F470014FF0000031
:1008400070BD41F0FE4141F4780170BD70B54FF0CC
:10085000FF0C4CF4E06C1CEA11541DBF1CEA13554C
:1008600094EA0C0F95EA0C0F00F0A7F8A4EB05042E
:1008700081EA030E52EA03354FEA013100F0888025
:100880004FEA03334FF0805545EA131343EA1263EE
:100890004FEA022245EA111545EA10654FEA0026A3
:1008A0000EF000419D4208BF964244F1FD0404F55C
:1008B000407402D25B084FEA3202B61A65EB0305B8
:1008C0005B084FEA32024FF480104FF4002CB6EB75
:1008D000020E75EB030E22BFB61A754640EA0C00F5
:1008E0005B084FEA3202B6EB020E75EB030E22BF35
:1008F000B61A754640EA5C005B084FEA3202B6EB76
:10090000020E75EB030E22BFB61A754640EA9C0034
:100910005B084FEA3202B6EB020E75EB030E22BF04
:10092000B61A754640EADC0055EA060E18D04FEAC2
:10093000051545EA16754FEA06164FEAC30343EA62
:1009400052734FEAC2025FEA1C1CC0D111F4801F2F
:100950000BD141EA00014FF000004FF0004CB6E728
:1009600011F4801F04BF01430020B4F1FD0C88BFC7
:10097000BCF5E06F3FF6AFAEB5EB030C04BFB6EBD2
:10098000020C5FEA500C50F1000041EB045170BDC5
:100990000EF0004E4EEA113114EB5C04C2BFD4EBF2
:1009A0000C0541EA045170BD41F480114FF0000E76
:1009B000013C90E645EA060E8DE60CEA135594EAF2
:1009C0000C0F08BF95EA0C0F3FF43BAF94EA0C0FF5
:1009D0000AD150EA01347FF434AF95EA0C0F7FF46A
:1009E00025AF104619462CE795EA0C0F06D152EABE
:1009F00003353FF4FDAE1046194622E750EA4106A2
:100A000018BF52EA43067FF4C5AE50EA41047FF4B2
:100A10000DAF52EA43057FF4EBAE12E74FF0FF3C17
:100A200006E000BF4FF0010C02E000BF4FF0010CE8
:100A30004DF804CD4FEA410C7FEA6C5C4FEA430C61
:100A400018BF7FEA6C5C1BD001B050EA410C0CBFB0
:100A500052EA430C91EA030F02BF90EA020F002012
:100A6000704710F1000F91EA030F58BF994208BF79
:100A700090422CBFD8176FEAE37040F00100704736
:100A80004FEA410C7FEA6C5C02D150EA013C07D18D
:100A90004FEA430C7FEA6C5CD6D152EA033CD3D0D8
:100AA0005DF8040B704700BF8446104662468C46D2
:100AB0001946634600E000BF01B5FFF7B7FF002805
:100AC00048BF10F1000F01BD4DF808EDFFF7F4FF2E
:100AD0000CBF012000205DF808FB00BF4DF808EDB9
:100AE000FFF7EAFF34BF012000205DF808FB00BFDC
:100AF0004DF808EDFFF7E0FF94BF012000205DF8FE
:100B000008FB00BF4DF808EDFFF7CEFF94BF0120B2
:100B100000205DF808FB00BF4DF808EDFFF7C4FFAB
:100B200034BF012000205DF808FB00BF4FEA410CF4
:100B30007FEA6C5C02D150EA013C0AD14FEA430CD7
:100B40007FEA6C5C02D152EA033C02D14FF0000014
:100B500070474FF0010070474FEA410212F5001252
:100B600015D211D56FF47873B3EB625212D94FEAF4
:100B7000C12343F0004343EA505311F0004F23FADE
:100B800002F018BF404270474FF00000704750EA33
:100B9000013005D111F0004008BF6FF000407047F0
:100BA0004FF00000704700BF4A0011D212F500124A
:100BB00011D20DD56FF47873B3EB62520ED44FEAB5
:100BC000C12343F0004343EA505323FA02F0704735
:100BD0004FF00000704750EA013002D14FF0FF3073
:100BE00070474FF0000070474FEA4102B2F1E04316
:100BF00024BFB3F5001CDCF1FE5C0DD901F0004C04
:100C00004FEAC0024CEA5070B2F1004F40EB830053
:100C100008BF20F00100704711F0804F21D113F17F
:100C20003872BCBF01F00040704741F480114FEAB8
:100C30005252C2F11802C2F1200C10FA0CF320FA41
:100C400002F018BF40F001004FEAC1234FEAD3235E
:100C500003FA0CFC40EA0C0023FA02F34FEA4303C8
:100C6000CCE77FEA625307D150EA01331EBF4FF051
:100C7000FE4040F44000704701F0004040F0FE406C
:100C800040F40000704700BF53B94AB9002908BFBB
:100C900000281CBF4FF0FF314FF0FF3000F074B957
:100CA000ADF1080C6DE904CE00F006F8DDF804E0C3
:100CB000DDE9022304B070472DE9F047089D0446A2
:100CC0008E46002B4DD18A42944669D9B2FA82F2FF
:100CD00052B101FA02F3C2F1200120FA01F10CFA3B
:100CE00002FC41EA030E94404FEA1C48210CBEFB73
:100CF000F8F61FFA8CF708FB16E341EA034306FBFC
:100D000007F199420AD91CEB030306F1FF3080F08A
:100D10001F81994240F21C81023E63445B1AA4B2D7
:100D2000B3FBF8F008FB103344EA034400FB07F779
:100D3000A7420AD91CEB040400F1FF3380F00A81BA
:100D4000A74240F207816444023840EA0640E41BAF
:100D500000261DB1D4400023C5E900433146BDE85B
:100D6000F0878B4209D9002D00F0EF800026C5E9FD
:100D7000000130463146BDE8F087B3FA83F6002E15
:100D80004AD18B4202D3824200F2F980841A61EB8D
:100D9000030301209E46002DE0D0C5E9004EDDE7AB
:100DA00002B9FFDEB2FA82F2002A40F09280A1EB93
:100DB0000C014FEA1C471FFA8CFE0126200CB1FBE8
:100DC000F7F307FB131140EA01410EFB03F08842E1
:100DD00008D91CEB010103F1FF3802D2884200F26E
:100DE000CB804346091AA4B2B1FBF7F007FB101100
:100DF00044EA01440EFB00FEA64508D91CEB04049E
:100E000000F1FF3102D2A64500F2BB800846A4EBF8
:100E10000E0440EA03409CE7C6F12007B34022FAE3
:100E200007FC4CEA030C20FA07F401FA06F31C4312
:100E3000F9404FEA1C4900FA06F3B1FBF9F8200C1F
:100E40001FFA8CFE09FB181140EA014108FB0EF065
:100E5000884202FA06F20BD91CEB010108F1FF3AB5
:100E600080F08880884240F28580A8F102086144C1
:100E7000091AA4B2B1FBF9F009FB101144EA0141CF
:100E800000FB0EFE8E4508D91CEB010100F1FF347A
:100E90006CD28E456AD90238614440EA0840A0FB12
:100EA0000294A1EB0E01A142C846A64656D353D0E8
:100EB0005DB1B3EB080261EB0E0101FA07F722FA0C
:100EC00006F3F1401F43C5E9007100263146BDE835
:100ED000F087C2F12003D8400CFA02FC21FA03F398
:100EE000914001434FEA1C471FFA8CFEB3FBF7F019
:100EF00007FB10360B0C43EA064300FB0EF69E423E
:100F000004FA02F408D91CEB030300F1FF382FD2D6
:100F10009E422DD9023863449B1B89B2B3FBF7F67E
:100F200007FB163341EA034106FB0EF38B4208D957
:100F30001CEB010106F1FF3816D28B4214D9023E98
:100F40006144C91A46EA004638E72E46284605E7B6
:100F50000646E3E61846F8E64B45A9D2B9EB020887
:100F600064EB0C0E0138A3E74646EAE7204694E717
:100F70004046D1E7D0467BE7023B614432E730464A
:100F800009E76444023842E7704700BF80B58AB081
:100F900004AFF8600B467A60FB720023FB757B6838
:100FA000DBB21B01DBB27B75FB7A002B01D168231E
:100FB00000E06923BB75BB7D9BB25B0099B20A233D
:100FC00002930123019307F11503009301237F226C
:100FD000F86802F0FBFC0346FB75FB7D18461837EA
:100FE000BD4680BD80B588B004AF78600846114624
:100FF0001A460346FB700B46BB7013467B700023FA
:10100000FB73FB78002B01D1682300E06923BB73DD
:10101000BB7B9BB25B0099B2BB789AB20A23029366
:10102000012301937B1C00930123786802F0CEFC1E
:101030000346FB73FB7B18461037BD4680BD80B569
:1010400084B000AF78600B46FB701346BB70002382
:10105000FB73FB78002219467868FFF797FF034679
:10106000FB73F978802306227868FFF7BBFF0346FD
:10107000FB73C82001F0FEFFF9780123062278688F
:10108000FFF7B0FF0346FB73F9783823072278682F
:10109000FFF7A8FF0346FB73FB7802221946786826
:1010A000FFF774FF0346FB73BB785B005BB243F052
:1010B00019035BB2DBB2F97801227868FFF792FF7F
:1010C0000346FB73F978042300227868FFF78AFF50
:1010D0000346FB73FB78002219467868FFF756FF3A
:1010E0000346FB73F97802230F227868FFF77AFF33
:1010F0000346FB7300BF1037BD4680BD80B500AF0F
:1011000001F076FF09F0E0FA444BD3ED007A444B4E
:1011100093ED007AF0EE470AB0EE670A414A0021EB
:10112000414801F018FA3D4BD3ED007A3C4B93ED6A
:10113000007AF0EE470AB0EE670A3A4A00213B48CF
:1011400001F009FA3A4BD3ED007A354B93ED007A72
:10115000F0EE470AB0EE670A364A0021364801F041
:10116000FAF9334BD3ED007A2D4B93ED007AF0EE84
:10117000470AB0EE670A2F4A0021304801F0EBF928
:10118000032200212E48FFF75AFF00F077F800F005
:101190001BFB00F045FA00F0FDF800F099F900F0B3
:1011A000EBF900F0E7FA00F0C7F809F08DFA0A222F
:1011B0002449254805F019FA0C21244804F08EF83A
:1011C0003C21234804F0F8F93C21224804F0F4F9CA
:1011D0000021214804F082F804211F4804F07EF821
:1011E00006F0E0F91D4A0421642006F0D2FA034615
:1011F0001B4A13601B4A00211B4806F01DFA0346D8
:101200001A4A13601A4A00211A4806F015FA0346D2
:10121000194A136006F0EAF9FEE700BF1800002043
:101220002000002000000020380400208804002056
:101230001C0000200C000020D804002028050020FD
:1012400024020020E80300209803002078020020F8
:10125000C00200200803002050030020D8D8000856
:10126000E403002090D80008951D0008DC0300204E
:10127000B4D80008B91D0008E003002080B594B080
:1012800000AF07F1200330220021184609F0DDFBF2
:1012900007F10C0300221A605A609A60DA601A6142
:1012A0000023BB60224B1B6C214A43F08053136424
:1012B0001F4B1B6C03F08053BB60BB6800237B603B
:1012C0001C4B1B681B4A43F480431360194B1B687B
:1012D00003F480437B607B6802233B620123FB6253
:1012E00010233B630023BB6307F12003184603F080
:1012F00011FA0346002B01D001F028F90F23FB60FF
:1013000000233B6100237B610023BB610023FB6161
:1013100007F10C030021184603F074FC0346002B70
:1013200001D001F013F900BF5037BD4680BD00BFAA
:10133000003802400070004080B500AF124B134AE5
:101340001A60114B124A5A600F4B00229A600E4BE2
:101350000022DA600C4B4FF480421A610A4B0022E3
:101360005A61094B00229A61074B0022DA61064B51
:1013700000221A62044802F0E5F90346002B01D06E
:1013800001F0E4F800BF80BD2402002000540040BA
:10139000A086010080B596B000AF07F14803002297
:1013A0001A605A609A60DA6007F1400300221A60FE
:1013B0005A6007F1240300221A605A609A60DA60CA
:1013C0001A615A619A613B1D20220021184609F0DA
:1013D0003CFB3D4B3D4A1A603B4BA0225A603A4BC6
:1013E00000229A60384B4FF47A72DA60364B002252
:1013F0001A61354B00225A61334B80229A61324880
:1014000003F052FE0346002B01D001F09FF84FF489
:101410008053BB6407F1480319462B4804F024FBB2
:101420000346002B01D001F091F8274803F0FCFEA1
:101430000346002B01D001F089F800233B64002310
:101440007B6407F1400319461F4804F00DFF034673
:10145000002B01D001F07AF860237B620023BB628D
:101460000023FB6200237B630023BB630023FB6339
:1014700007F124030C221946134804F033FA0346FB
:10148000002B01D001F062F800237B600023BB60D9
:101490000023FB6000233B6100237B614FF400537A
:1014A000BB6100233B623B1D1946074804F058FF0F
:1014B0000346002B01D001F049F8034801F054FB2A
:1014C00000BF5837BD4680BD7802002000000140B3
:1014D00080B58CB000AF07F10C0324220021184620
:1014E00009F0B3FA3B1D00221A605A60214B4FF0FD
:1014F00080421A601F4B00225A601E4B00229A60E5
:101500001C4B4FF6FF72DA601A4B00221A61194B1E
:1015100000229A610323FB6000233B6101237B616E
:101520000023BB610A23FB6100233B6201237B6232
:101530000023BB620023FB6207F10C0319460D4830
:1015400003F094FF0346002B01D000F0FFFF0023BF
:101550007B600023BB603B1D1946064804F084FEF7
:101560000346002B01D000F0F1FF00BF3037BD462D
:1015700080BD00BFC002002080B58CB000AF07F175
:101580000C0324220021184609F05FFA3B1D0022BB
:101590001A605A60204B214A1A601F4B00225A6081
:1015A0001D4B00229A601C4B4FF6FF72DA601A4BFB
:1015B00000221A61184B00229A610323FB6000236A
:1015C0003B6101237B610023BB610A23FB61002394
:1015D0003B6201237B620023BB620023FB6207F1B5
:1015E0000C0319460C4803F041FF0346002B01D0C1
:1015F00000F0ACFF00237B600023BB603B1D19465D
:10160000054804F031FE0346002B01D000F09EFF98
:1016100000BF3037BD4680BD0803002000040040F5
:1016200080B596B000AF07F1480300221A605A60F7
:101630009A60DA6007F1400300221A605A6007F1ED
:10164000240300221A605A609A60DA601A615A61B3
:101650009A613B1D20220021184609F0F6F9434B00
:10166000434A1A60414B00225A60404B00229A6064
:101670003E4B41F61F42DA603C4B00221A613B4B65
:1016800000225A61394B00229A61384803F00CFD60
:101690000346002B01D000F059FF4FF48053BB6488
:1016A00007F148031946314804F0DEF90346002BE0
:1016B00001D000F04BFF2D4803F0B6FD0346002B90
:1016C00001D000F043FF00233B6400237B6407F15B
:1016D00040031946254804F0C7FD0346002B01D0FE
:1016E00000F034FF60237B620023BB620023FB62B7
:1016F00000233B6300237B630023BB630023FB6366
:1017000007F1240300221946184804F0EBF80346B9
:10171000002B01D000F01AFF07F124030422194620
:10172000124804F0DFF80346002B01D000F00EFF52
:1017300000237B600023BB600023FB6000233B6130
:1017400000237B614FF40053BB6100233B623B1DD0
:101750001946064804F004FE0346002B01D000F0B1
:10176000F5FE00BF5837BD4680BD00BF50030020C6
:101770000004014080B500AF114B124A1A60104BB3
:101780004FF4E1325A600E4B00229A600C4B00225B
:10179000DA600B4B00221A61094B0C225A61084B8C
:1017A00000229A61064B0022DA61054804F03EFEF1
:1017B0000346002B01D000F0C9FE00BF80BD00BF72
:1017C000980300200048004080B58AB000AF07F1C0
:1017D000140300221A605A609A60DA601A610023CA
:1017E0003B61314B1B6B304A43F0100313632E4BAC
:1017F0001B6B03F010033B613B690023FB602A4B2A
:101800001B6B294A43F001031363274B1B6B03F047
:101810000103FB60FB680023BB60234B1B6B224A68
:1018200043F004031363204B1B6B03F00403BB6002
:10183000BB6800237B601C4B1B6B1B4A43F00203FD
:101840001363194B1B6B03F002037B607B68002260
:101850004FF4BC61154801F041FF00223C211448BF
:1018600001F03CFF4FF4BC637B610123BB610023AB
:10187000FB6100233B6207F1140319460B4801F09A
:1018800091FD3C237B610123BB610023FB610223AB
:101890003B6207F114031946054801F083FD00BFC0
:1018A0002837BD4680BD00BF00380240001002400E
:1018B0000000024080B58CB000AF786000237B62EE
:1018C0007B684D4A934240F092804C4B1B7887F8DE
:1018D0002F304A4B5B7887F82E3007F12003032224
:1018E0004749184609F0A3F8002387F8233007F189
:1018F0002003184608F074FF03461A46414B1A604D
:1019000097F82F306E2B02D13F4B01221A703F4ABD
:1019100097F82E3013703D4B1B781A46394B1B68D5
:1019200007F10C003A4909F011FE07F10C031A46C1
:101930000A210A2008F096FE334B1B78012B51D167
:10194000324B1B78772B02D101237B6232E02F4B85
:101950001B78712B02D103237B622BE02B4B1B786E
:10196000652B02D105237B6224E0284B1B78782B62
:1019700002D102237B621DE0244B1B787A2B02D11B
:1019800004237B6216E0214B1B78632B02D10623D4
:101990007B620FE01D4B1B78732B02D107237B6208
:1019A00008E01A4B1B78752B02D108237B6201E0FB
:1019B00000237B627B6A4FF47A7203FB02F2114BC5
:1019C0001B6813447B62134B186807F12401002342
:1019D000002205F051FFB862642303220E49064835
:1019E00004F071FD05220549034804F0FEFD00BF27
:1019F0003037BD4680BD00BF98030020E8030020BB
:101A0000EA030020F0030020ED030020EE03002095
:101A100044D80008E403002050D8000880B483B004
:101A200000AF0346FB80054B1B68FA885A6300BF72
:101A30000C37BD465DF8047B704700BF50030020A3
:101A400080B483B000AF0346FB80054B1B68FA8867
:101A50009A6300BF0C37BD465DF8047B704700BF3A
:101A60005003002080B582B000AF78600021234889
:101A700003F034FC0421214803F030FC7B68002B88
:101A80001CD1002220211E4801F028FE0122102135
:101A90001B4801F023FE00220421194801F01EFE1C
:101AA00001220821164801F019FE40F64E40FFF7CA
:101AB000B5FF40F6B830FFF7C3FF1BE0012220213D
:101AC0000F4801F00BFE002210210D4801F006FE28
:101AD000012204210A4801F001FE002208210848E1
:101AE00001F0FCFD40F64E40FFF798FF40F6B8309D
:101AF000FFF7A6FF00BF0837BD4680BD500300209A
:101B00000000024080B500AF00222021094801F00A
:101B1000E5FD01221021074801F0E0FD002204212B
:101B2000044801F0DBFD01220821024801F0D6FD46
:101B300000BF80BD0000024080B500AF012220211F
:101B4000094801F0CBFD00221021074801F0C6FD35
:101B500001220421044801F0C1FD002208210248AD
:101B600001F0BCFD00BF80BD0000024080B500AFA9
:101B7000044B1B6871221A64FA2005F0EFFD00BFC8
:101B800080BD00BF7802002080B500AF044B1B6809
:101B9000F3221A64FA2005F0E1FD00BF80BD00BF0A
:101BA0007802002080B500AF044B1B6899221A64AC
:101BB000FA2005F0D3FD00BF80BD00BF78020020F1
:101BC00080B500AF044B1B68F3221A64FA2005F0BD
:101BD000C5FD00BF80BD00BF7802002000000000EE
:101BE000B0B586B004AF78607B68D3ED007AB1EE13
:101BF000007A67EE877A7B68C3ED007A484B4FF036
:101C000000021A60474B00221A8001F027FA0346AF
:101C1000454A136001F022FA0246434B1B68D31A6F
:101C2000092BF7D94FF6FF730293022301933F4B21
:101C3000009301233722D0213D4801F0C1FF3B4BE7
:101C40001B781B021AB2394B5B781BB213431AB2D2
:101C5000344B1A80324B1B681846FEF775FC04465D
:101C60000D46304BB3F900301846FEF75BFC28A355
:101C7000D3E90023FEF7EAFD02460B46104619465B
:101C800025A3D3E90023FEF7B7FC02460B46204606
:101C90002946FEF7FBFA02460B4610461946FEF7A8
:101CA000A3FF03461E4A13601D4B93ED007A7B6829
:101CB000D3ED007A77EE677AFDEEE77A17EE903A89
:101CC000002B0DDB164B93ED007A7B68D3ED007A89
:101CD00077EE677AFDEEE77A17EE903A002B05DD96
:101CE00001F0BCF90346104A136093E700BF7B681C
:101CF0004FF000021A600020FFF790FE0020FFF76F
:101D00009FFEFFF75DFF00BF0837BD46B0BD00BFB7
:101D100066666666666630407B14AE47E17A843F4D
:101D2000FC03002002040020040400200004002022
:101D30002402002080B485B000AFF860B9607A60FA
:101D40007B681B681B6803F01003102B0ED1BA6868
:101D5000FB689A4203D8FA68BB68D31A14E0FA68A1
:101D6000BB68D31A03F57F43FF330DE0BA68FB6805
:101D70009A4203D3BA68FB68D31A05E0BA68FB68D5
:101D8000D31A03F57F43FF3318461437BD465DF879
:101D9000047B704780B582B000AF78604FF48061FB
:101DA000044801F0B4FC08F0E9FA322005F0D6FC52
:101DB000F4E700BF0010024090B599B000AF786022
:101DC0000023FB6500237B6400233B640023BB6589
:101DD0000023FB630023BB630023FB61C04A07F1C0
:101DE000080307CA03C31A7007F1110300221A601F
:101DF0005A60C3F8072000237B65FFF7D3FEB94B79
:101E00001B685B6AFB65B84B1B685B6ABB657B6DD7
:101E1000002B40F0C181B54B186807F11C01C823A5
:101E2000002205F089FDFB69002B02D0B04B012296
:101E30001A70FA6907F12003AE49184609F086FBCB
:101E400007F120031A4614210A2008F00BFCFB6955
:101E5000A94AA2FB03239B0987F83730FA69A64BEE
:101E6000A3FB02139B094FF47A7101FB03F3D31A0E
:101E7000BB8697F8373087F85330BB8EA7F85030C1
:101E8000B7F9502007F120039C49184609F05EFB82
:101E900007F120031A4628210A2008F0E3FB97F8EF
:101EA0003730082B04D1BB8E1846FFF7DBFD73E1FA
:101EB00097F83730022B07D097F83730042B03D030
:101EC00097F83730062B05D1FFF736FE8C4B8D4A3D
:101ED0001A6004E0FFF716FE894B8A4A1A6097F8E9
:101EE0003730032B03D097F83730042B02D1FFF79C
:101EF0003DFE13E097F83730052B03D097F83730C5
:101F0000062B02D1FFF740FE08E097F83730072B89
:101F100002D1FFF755FE01E0FFF744FE97F8373096
:101F2000042B03D097F83730032B62D1BB8E1846B1
:101F3000FEF7E8FA4FF00002734BFEF787FC02460B
:101F40000B461046194602460B46FEF79FF902461D
:101F50000B46104619465EA3D3E90023FEF74CFB5F
:101F600002460B46104619464FF00002674BFEF73B
:101F700043FB02460B461046194657A3D3E90023FC
:101F8000FEF764FC02460B466149C1E90023BB8EA3
:101F90001846FEF7B7FA4FF000025B4BFEF756FC0F
:101FA00002460B461046194602460B46FEF76EF9EE
:101FB00002460B461046194645A3D3E90023FEF717
:101FC0001BFB02460B46104619464FF00002514BD0
:101FD000FEF712FB02460B46104619463EA3D3E914
:101FE0000023FEF733FC02460B464B49C1E90023B0
:101FF000ACE097F83730052B04D097F83730062B34
:1020000040F09080BB8E1846FEF77CFA4FF000023D
:102010003D4BFEF71BFC02460B4610461946024696
:102020000B46FEF733F902460B461046194628A325
:10203000D3E90023FEF7E0FA02460B4610461946A4
:102040004FF00002354BFEF7D7FA02460B4610461A
:10205000194621A3D3E90023FEF7F8FB02460B46FD
:102060002D49C1E90023BB8E1846FEF74BFA4FF00D
:102070000002254BFEF7EAFB02460B4610461946C6
:1020800002460B46FEF702F902460B461046194679
:102090000FA3D3E90023FEF7AFFA02460B46104622
:1020A00019464FF000021E4BFEF7A6FA02460B46F9
:1020B0001046194608A3D3E90023FEF7C7FB0246E2
:1020C0000B461349C1E9002340E000BFAFF3008095
:1020D000894160E5D022094048C02E9566398B3F82
:1020E00064D80008C002002008030020E403002098
:1020F000F403002054D80008D34D62105CD80008C7
:102100001800002000007A450080764000804040A2
:10211000200400200080304008040020008045405A
:1021200000803A40BB8E1846FEF7ECF997A3D3E93E
:102130000023FEF78BFB02460B468949C1E90023C9
:10214000874BD3E900238749C1E9002386494FF033
:1021500000024FF00003C1E9002384494FF0000260
:102160004FF00003C1E9002381494FF000024FF016
:102170000003C1E900237F494FF000024FF0000344
:10218000C1E900237C4B1B685B6AFB657B4B1B68CA
:102190005B6ABB6501237B657B6D002B00F0A18131
:1021A0000023FB640023BB64734B1B685B6A7B6486
:1021B000724B1B685B6AFB636F4A796CF86DFFF7C3
:1021C000B9FD38646D4AF96BB86DFFF7B3FDB863BC
:1021D000386CFEF797F9644BD3E90023FEF756F805
:1021E00002460B466049C1E90023B86BFEF78AF945
:1021F0005F4BD3E90023FEF749F802460B465C49E2
:10220000C1E9002397F95330022B03D097F95330DB
:10221000012B53D1B7F95030092B42DD544BD3E990
:10222000002310461946FEF7DFFC04464D4BD3E968
:10223000002310461946FEF7D7FC034600EE903AFD
:1022400000EE104A4E4800F0DBF910EE103A184646
:10225000FEF77AF902460B464649C1E90023424B94
:10226000D3E9002310461946FEF7BEFC04463D4B59
:10227000D3E9002310461946FEF7B6FC034600EEEC
:10228000903A00EE104A3F4800F0BAF910EE103ACA
:102290001846FEF759F902460B463449C1E90023B6
:1022A00094E032492CA3D3E90023C1E9002331494A
:1022B00029A3D3E90023C1E9002387E097F953302C
:1022C000032B14D1B7F9503007EE903AF8EEE77AC5
:1022D0002D4BC3ED007A4FF47A70FFF79FFB4FF45C
:1022E000FA60FFF7ADFB2848FFF77AFC6AE097F940
:1022F0005330052B15D1B7F950305B4207EE903AB9
:10230000F8EEE77A204BC3ED007A4FF4FA60FFF75E
:1023100085FB4FF47A70FFF793FB1B48FFF760FCD7
:1023200050E097F95330042B34D1B7F950305B4269
:1023300007EE903AF8EEE77A134BC3ED007A4FF4CC
:102340007A70FFF76BFB4FF4FA60FFF779FB0E48EA
:10235000FFF746FC36E000BF000000000070974029
:10236000080400202004002018040020100400208D
:102370003004002028040020C002002008030020B0
:102380008804002038040020F803002048C02E955F
:1023900066398B3F97F95330062B13D1B7F950307C
:1023A00007EE903AF8EEE77A544BC3ED007A4FF41B
:1023B000FA60FFF733FB4FF47A70FFF741FB4F48A9
:1023C000FFF70EFC0123FB640123BB644C4BD3E9F4
:1023D00000014C4BD3E90023FDF756FF02460B46A4
:1023E000104619464FF00002474BFEF781FB0346AB
:1023F000002B19D043494FF000024FF00003C1E910
:10240000002342494FF000024FF00003C1E90023CE
:102410003B494FF000024FF00003C1E900230020C8
:10242000FFF7FCFA0123FB64394BD3E90001394B78
:10243000D3E90023FDF728FF02460B461046194654
:102440004FF00002304BFEF753FB0346002B19D030
:1024500030494FF000024FF00003C1E900232E493C
:102460004FF000024FF00003C1E9002328494FF06C
:1024700000024FF00003C1E900230020FFF7E0FA5B
:102480000123BB64FB6C002B0DD0BB6C002B0AD06E
:1024900000237B650023FB61204B1B78002B02D0BF
:1024A0001E4B00221A70FB6C002B0BD1174BD3E98B
:1024B000002310461946FEF777FB03469BB21846E9
:1024C000FFF7ACFABB6C002B0BD1134BD3E9002305
:1024D00010461946FEF768FB03469BB21846FFF705
:1024E000AFFA0F4B1B685B6AFB650E4B1B685B6AA0
:1024F000BB65322005F032F989E400BFF803002003
:1025000008040020180400200000444010040020AB
:10251000200400203004002028040020F4030020C0
:10252000C00200200803002080B582B000AF7860B0
:102530007B681B68044A934201D100F07BFD00BF19
:102540000837BD4680BD00BF0014004080B400AF16
:1025500072B600BFFEE780B487B000AF78610B466B
:10256000FA6087ED020AC7ED010AFB747B69002B54
:1025700040D0FB68002B3DD07B69FA7C1A70FB6869
:102580001A687B695A60FB685A687B699A60FB68C5
:102590009A687B69DA607B69BA681A617B697A68D4
:1025A0005A617B694FF000029A637B699A6B7B6981
:1025B0005A637B695A6B7B691A637B694FF000022F
:1025C0001A627B691A6A7B69DA627B69DA6A7B69FB
:1025D0009A627B699A6A7B695A627B695A6A7B69EB
:1025E0005A647B695A6C7B691A647B691A6C7B69D3
:1025F000DA6300E000BF1C37BD465DF8047B70471E
:1026000080B485B000AFF86087ED020AC7ED010A1B
:10261000FB68002B02D14FF0000330E1FB681A6C1D
:10262000FB685A64FB68DA6BFB681A64FB687A68BB
:102630009A61FB68BA68DA6197ED017AD7ED027AA0
:1026400077EE677AFB68C3ED0F7AFB681B78002B87
:1026500040F09580FB6893ED017AFB68D3ED0F7A2B
:1026600067EE277AFB68C3ED097AFB6893ED0A7A77
:10267000FB68D3ED026AFB68D3ED0F7A66EEA77AAA
:1026800077EE277AFB68C3ED0A7AFB685A6BFB6822
:102690009A63FB681A6BFB685A63FB6893ED0F7AC9
:1026A000FB68D3ED107A77EE677AFB68C3ED0C7A9E
:1026B000FB6893ED037AFB68D3ED0C7A67EE277A1B
:1026C000FB68C3ED0B7AFB6893ED0A7AFB68D3EDE8
:1026D000057AB4EEE77AF1EE10FA04DDFB685A6988
:1026E000FB689A6214E0FB6893ED0A7AFB68D3ED0D
:1026F000057AF1EE677AB4EEE77AF1EE10FA07D5D3
:10270000FB68D3ED057AF1EE677AFB68C3ED0A7AD0
:10271000FB6893ED097AFB68D3ED0A7A37EE277AE6
:10272000FB68D3ED0B7A77EE277AFB68C3ED087A66
:10273000FB6893ED087AFB68D3ED047AB4EEE77A90
:10274000F1EE10FA04DDFB681A69FB681A6294E086
:10275000FB6893ED087AFB68D3ED047AF1EE677AB3
:10276000B4EEE77AF1EE10FA40F18780FB68D3ED22
:10277000047AF1EE677AFB68C3ED087A7DE0FB68C6
:102780001B78012B79D1FB6893ED017AFB68D3EDBF
:102790000F6AFB68D3ED107A76EEE77A67EE277A58
:1027A000FB68C3ED097AFB6893ED027AFB68D3ED11
:1027B0000F7A67EE277AFB68C3ED0A7AFB685A6BDB
:1027C000FB689A63FB681A6BFB685A63FB6893EDBE
:1027D0000F7AFB68D3ED107A77EEA77A37EE677A37
:1027E000FB68D3ED117A77EE277AFB68C3ED0C7A9C
:1027F000FB6893ED037AFB68D3ED0C7A67EE277ADA
:10280000FB68C3ED0B7AFB6893ED087AFB68D3EDA8
:10281000096AFB68D3ED0A7A76EEA76AFB68D3ED06
:102820000B7A76EEA77A77EE277AFB68C3ED087A03
:10283000FB6893ED087AFB68D3ED047AB4EEE77A8F
:10284000F1EE10FA04DDFB681A69FB681A6214E005
:10285000FB6893ED087AFB68D3ED047AF1EE677AB2
:10286000B4EEE77AF1EE10FA07D5FB68D3ED047AFF
:10287000F1EE677AFB68C3ED087AFB681B6A07EE26
:10288000903AB0EE670A1437BD465DF8047B704796
:1028900080B582B000AF00237B60124B5B6C114AA5
:1028A00043F4804353640F4B5B6C03F480437B60C1
:1028B0007B6800233B600B4B1B6C0A4A43F0805340
:1028C0001364084B1B6C03F080533B603B68002291
:1028D0000F216FF0010000F0A9FC00BF0837BD46D2
:1028E00080BD00BF0038024080B58AB000AF78607C
:1028F00007F1140300221A605A609A60DA601A61C4
:102900007B681B68194A93422CD100233B61184B0A
:102910001B6B174A43F002031363154B1B6B03F049
:1029200002033B613B694FF440737B611223BB613F
:102930000023FB6103233B6204237B6207F1140342
:1029400019460C4800F02EFD0023FB60084B1B6C61
:10295000074A43F400131364054B1B6C03F4001384
:10296000FB60FB6800BF2837BD4680BD00540040B7
:10297000003802400004024080B58AB000AF7860A1
:1029800007F1140300221A605A609A60DA601A6133
:102990007B681B68234A93420ED100233B61224B84
:1029A0005B6C214A43F0010353641F4B5B6C03F0E3
:1029B00001033B613B6930E07B681B681B4A934223
:1029C0002BD10023FB60184B5B6C174A43F00203CA
:1029D0005364154B5B6C03F00203FB60FB68002340
:1029E000BB60114B1B6B104A43F0040313630E4B87
:1029F0001B6B03F00403BB60BB68C0237B61022335
:102A0000BB610023FB6100233B6203237B6207F170
:102A100014031946064800F0C5FC00BF2837BD4620
:102A200080BD00BF000001400038024000040140AA
:102A30000008024080B58CB000AF786007F11C033D
:102A400000221A605A609A60DA601A617B681B681B
:102A5000B3F1804F4BD10023BB613F4B1B6C3E4A0F
:102A600043F0010313643C4B1B6C03F00103BB6197
:102A7000BB6900237B61384B1B6B374A43F0010372
:102A80001363354B1B6B03F001037B617B690023F0
:102A90003B61314B1B6B304A43F0020313632E4BF7
:102AA0001B6B03F002033B613B694FF40043FB6186
:102AB00002233B6200237B620023BB620123FB6293
:102AC00007F11C031946254800F06CFC0823FB6144
:102AD00002233B6200237B620023BB620123FB6273
:102AE00007F11C0319461E4800F05CFC30E07B68CF
:102AF0001B681C4A93422BD10023FB60164B1B6CB6
:102B0000154A43F002031364134B1B6C03F00203DA
:102B1000FB60FB680023BB600F4B1B6B0E4A43F04E
:102B2000010313630C4B1B6B03F00103BB60BB6819
:102B3000C023FB6102233B6200237B620023BB6254
:102B40000223FB6207F11C031946044800F02AFC2B
:102B500000BF3037BD4680BD003802400000024053
:102B6000000402400004004080B588B000AF7860E7
:102B700007F10C0300221A605A609A60DA601A6149
:102B80007B681B68124A93421ED10023BB60114B25
:102B90001B6B104A43F0100313630E4B1B6B03F0C7
:102BA0001003BB60BB684FF48043FB6002233B61B2
:102BB00000237B610023BB610123FB6107F10C0350
:102BC0001946054800F0EEFB00BF2037BD4680BD2A
:102BD00000000140003802400010024080B58AB079
:102BE00000AF786007F1140300221A605A609A60FF
:102BF000DA601A617B681B68264A934245D100233C
:102C00003B61254B1B6C244A43F480231364224B05
:102C10001B6C03F480233B613B690023FB601E4B6C
:102C20001B6B1D4A43F0040313631B4B1B6B03F028
:102C30000403FB60FB684FF480637B610223BB618C
:102C40000023FB6102233B6207237B6207F114032D
:102C50001946124800F0A6FB4FF400637B61022383
:102C6000BB610223FB6102233B6207237B6207F106
:102C700014031946094800F095FB0022052127207E
:102C800000F0D4FA272000F0EDFA00BF2837BD4647
:102C900080BD00BF004800400038024000080240EC
:102CA00080B58EB000AF78600023FB620023BB626A
:102CB0000023FB60334B1B6C324A43F02003136448
:102CC000304B1B6C03F02003FB60FB6807F1100224
:102CD00007F114031146184602F0B4F93B6AFB628F
:102CE000FB6A002B03D102F085F9786304E002F05F
:102CF00081F903465B007B637B6B234AA2FB0323C2
:102D00009B0C013BBB62214B214A1A601F4B40F2D6
:102D1000E732DA601D4ABB6A53601C4B00221A611D
:102D20001A4B00229A60194B00229A61174802F050
:102D3000BBF9034687F8333097F83330002B1BD1AB
:102D4000124802F001FA034687F8333097F833301F
:102D5000002B11D1372000F085FA7B680F2B08D8A3
:102D600000227968372000F061FA0A4A7B68136014
:102D700002E0012387F8333097F8333018463837AC
:102D8000BD4680BD0038024083DE1B43780500202D
:102D9000001400402800002080B400AFFEE780B49B
:102DA00000AFFEE780B400AFFEE780B400AFFEE7FF
:102DB00080B400AFFEE780B400AF00BFBD465DF851
:102DC000047B704780B500AF024803F03FFC00BFB2
:102DD00080BD00BF9803002080B500AF024802F01C
:102DE00079FC00BF80BD00BF7805002080B400AF33
:102DF00001231846BD465DF8047B704780B582B05C
:102E000000AF7860396007F0EFFC034616221A60C5
:102E10004FF0FF3318460837BD4680BD80B582B0FD
:102E200000AF78604FF0FF317868FFF7E7FFFEE70B
:102E300080B586B000AFF860B9607A6000237B612E
:102E40000AE0AFF300800146BB685A1CBA60CAB200
:102E50001A707B6901337B617A697B689A42F0DB87
:102E60007B6818461837BD4680BD80B586B000AF78
:102E7000F860B9607A6000237B6109E0BB685A1C86
:102E8000BA601B781846AFF300807B6901337B6121
:102E90007A697B689A42F1DB7B6818461837BD4631
:102EA00080BD80B483B000AF78604FF0FF33184628
:102EB0000C37BD465DF8047B704780B483B000AF2B
:102EC000786039603B684FF400525A60002318461E
:102ED0000C37BD465DF8047B704780B483B000AF0B
:102EE0007860012318460C37BD465DF8047B7047B7
:102EF00080B485B000AFF860B9607A6000231846EE
:102F00001437BD465DF8047B7047000080B586B07D
:102F100000AF7860144A154BD31A7B617B693B6123
:102F2000134B1B68002B02D1114B124A1A60104B35
:102F30001A687B6813443A699A4207D207F054FC36
:102F400003460C221A604FF0FF3309E0084B1B6860
:102F5000FB60074B1A687B681344054A1360FB68E3
:102F600018461837BD4680BD00000220000400004E
:102F7000C0050020E853002080B400AF064BD3F812
:102F80008830054A43F47003C2F8883000BFBD465C
:102F90005DF8047B704700BF00ED00E0DFF834D03F
:102FA0000D480E490E4A002302E0D458C4500433A1
:102FB000C4188C42F9D30B4A0B4C002301E0136078
:102FC0000432A242FBD3FFF7D7FF07F009FDFEF75B
:102FD00095F8704700000220000000200402002045
:102FE0005CE7000808020020E8530020FEE700002C
:102FF00080B500AF0E4B1B680D4A43F4007313609D
:103000000B4B1B680A4A43F480631360084B1B6830
:10301000074A43F480731360032000F0FCF80F208C
:10302000FFF73EFEFFF734FC0023184680BD00BFCB
:10303000003C024080B400AF064B1B781A46064B9A
:103040001B681344044A136000BFBD465DF8047B4F
:10305000704700BF2C000020C405002080B400AFE2
:10306000034B1B681846BD465DF8047B704700BFE4
:10307000C405002080B584B000AF7860FFF7EEFF94
:10308000B8607B68FB60FB68B3F1FF3F05D00A4B7B
:103090001B781A46FB681344FB6000BFFFF7DEFF96
:1030A0000246BB68D31AFA689A42F7D800BF00BF3D
:1030B0001037BD4680BD00BF2C00002080B485B015
:1030C00000AF78607B6803F00703FB600C4BDB68A4
:1030D000BB60BA684FF6FF031340BB60FB681A027F
:1030E000BB68134343F0BF6343F40033BB60044A3F
:1030F000BB68D36000BF1437BD465DF8047B7047E2
:1031000000ED00E080B400AF044BDB681B0A03F065
:1031100007031846BD465DF8047B704700ED00E0EC
:1031200080B483B000AF0346FB7197F90730002BE2
:103130000BDBFB7903F01F02074997F907305B09A6
:10314000012000FA02F241F8232000BF0C37BD46EF
:103150005DF8047B704700BF00E100E080B483B0FD
:1031600000AF03463960FB7197F90730002B0ADB8B
:103170003B68DAB20C4997F907301201D2B20B441E
:1031800083F800230AE03B68DAB20849FB7903F0D0
:103190000F03043B1201D2B20B441A7600BF0C3766
:1031A000BD465DF8047B704700E100E000ED00E003
:1031B00080B489B000AFF860B9607A60FB6803F052
:1031C0000703FB61FB69C3F10703042B28BF04233A
:1031D000BB61FB690433062B02D9FB69033B00E0AA
:1031E00000237B614FF0FF32BB6902FA03F3DA433D
:1031F000BB681A407B699A404FF0FF317B6901FA46
:1032000003F3D9437B680B40134318462437BD466C
:103210005DF8047B704780B582B000AF7860786855
:10322000FFF74CFF00BF0837BD4680BD80B586B0B4
:1032300000AF0346B9607A60FB7300237B61FFF740
:1032400061FF78617A68B9687869FFF7B1FF024673
:1032500097F90F3011461846FFF780FF00BF183767
:10326000BD4680BD80B582B000AF0346FB7197F9C3
:1032700007301846FFF754FF00BF0837BD4680BD32
:1032800080B584B000AF78607B689B6DFB60FFF712
:10329000E5FEB8607B6893F83530DBB2022B08D0CE
:1032A0007B6880225A657B68002283F834200123E2
:1032B00052E07B681B681A687B681B6822F0160264
:1032C0001A607B681B685A697B681B6822F0800261
:1032D0005A617B681B6C002B03D17B689B6C002BB5
:1032E00007D07B681B681A687B681B6822F008029D
:1032F0001A607B681B681A687B681B6822F00102F1
:103300001A6013E0FFF7AAFE0246BB68D31A052B2A
:103310000CD97B6820225A657B68032283F835200C
:103320007B68002283F83420032315E07B681B6848
:103330001B6803F00103002BE4D17B68DB6D3F22A7
:103340009A40FB689A607B68012283F835207B688D
:10335000002283F83420002318461037BD4680BD74
:1033600080B483B000AF78607B6893F83530DBB20F
:10337000022B04D07B6880225A6501230CE07B6815
:10338000052283F835207B681B681A687B681B68F8
:1033900022F001021A60002318460C37BD465DF882
:1033A000047B704780B489B000AF78603960002337
:1033B0007B6100233B610023BB610023FB616BE168
:1033C0000122FB6902FA03F37B613B681B687A699F
:1033D00013403B613A697B699A4240F05A813B68ED
:1033E0005B6803F00303012B05D03B685B6803F0C7
:1033F0000303022B30D17B689B68BB61FB695B00D8
:10340000032202FA03F3DB43BA691340BB613B6852
:10341000DA68FB695B0002FA03F3BA691343BB6124
:103420007B68BA699A607B685B68BB610122FB6953
:1034300002FA03F3DB43BA691340BB613B685B6884
:103440001B0903F00102FB6902FA03F3BA69134393
:10345000BB617B68BA695A603B685B6803F0030331
:10346000032B17D07B68DB68BB61FB695B00032221
:1034700002FA03F3DB43BA691340BB613B689A6805
:10348000FB695B0002FA03F3BA691343BB617B6813
:10349000BA69DA603B685B6803F00303022B23D14F
:1034A000FB69DA087B68083253F82230BB61FB699C
:1034B00003F007039B000F2202FA03F3DB43BA6910
:1034C0001340BB613B681A69FB6903F007039B006B
:1034D00002FA03F3BA691343BB61FB69DA087B683C
:1034E0000832B96943F822107B681B68BB61FB692D
:1034F0005B00032202FA03F3DB43BA691340BB61AA
:103500003B685B6803F00302FB695B0002FA03F3AC
:10351000BA691343BB617B68BA691A603B685B6830
:1035200003F44033002B00F0B4800023FB60604BB9
:103530005B6C5F4A43F4804353645D4B5B6C03F404
:103540008043FB60FB685B4AFB699B08023352F8CF
:103550002330BB61FB6903F003039B000F2202FAD7
:1035600003F3DB43BA691340BB617B68524A934261
:103570002BD07B68514A934225D07B68504A9342B6
:103580001FD07B684F4A934219D07B684E4A9342C2
:1035900013D07B684D4A93420DD07B684C4A9342CE
:1035A00007D07B684B4A934201D107230EE00823E2
:1035B0000CE006230AE0052308E0042306E00323C9
:1035C00004E0022302E0012300E00023FA6902F094
:1035D000030292009340BA691343BB613549FB690A
:1035E0009B080233BA6941F823203B4B9B68BB61BF
:1035F0003B69DB43BA691340BB613B685B6803F41A
:103600008013002B03D0BA693B691343BB61324A74
:10361000BB699360304BDB68BB613B69DB43BA69D4
:103620001340BB613B685B6803F40013002B03D0BD
:10363000BA693B691343BB61274ABB69D360264B18
:103640005B68BB613B69DB43BA691340BB613B68A4
:103650005B6803F40033002B03D0BA693B69134362
:10366000BB611D4ABB6953601B4B1B68BB613B6957
:10367000DB43BA691340BB613B685B6803F480338A
:10368000002B03D0BA693B691343BB61124ABB6983
:103690001360FB690133FB61FB690F2B7FF690AE72
:1036A00000BF00BF2437BD465DF8047B704700BFF4
:1036B000003802400038014000000240000402408F
:1036C00000080240000C02400010024000140240BA
:1036D00000180240001C0240003C014080B483B04E
:1036E00000AF78600B467B8013467B707B78002BA5
:1036F00003D07A887B689A6103E07B881A047B6830
:103700009A6100BF0C37BD465DF8047B704780B4FA
:1037100085B000AF78600B467B807B685B69FB609F
:103720007A88FB6813401A04FB68D9437B880B40F6
:103730001A437B689A6100BF1437BD465DF8047B6D
:103740007047000080B584B000AF78607B68002BC4
:1037500001D101232BE17B6893F83D30DBB2002BD4
:1037600006D17B68002283F83C207868FFF7BCF81C
:103770007B68242283F83D207B681B681A687B687D
:103780001B6822F001021A607B681B681A687B685C
:103790001B6842F400421A607B681B681A687B68E9
:1037A0001B6822F400421A6001F024FCF8607B6878
:1037B0005B68814A934207D8FB68804A934294BF72
:1037C00001230023DBB206E0FB687D4A934294BFED
:1037D00001230023DBB2002B01D00123E7E0FB68CB
:1037E000784AA2FB03239B0CBB607B681B685B6869
:1037F00023F03F017B681B68BA680A435A607B6804
:103800001B681B6A23F03F017B685B686A4A93422E
:1038100002D8BB68013309E0BB684FF4967202FB23
:1038200003F3694AA2FB03239B0901337A681268F8
:103830000B4313627B681B68DB6923F44F4222F061
:10384000FF027B685B685C498B4219D8FB68591E94
:103850007B685B685B00B1FBF3F3591C40F6FC73BB
:103860000B40002B0AD0FB68591E7B685B685B002D
:10387000B1FBF3F30133C3F30B0351E004234FE037
:103880007B689B68002B11D1FB68581E7B685968C8
:103890000B465B000B44B0FBF3F30133C3F30B03A4
:1038A000002B0CBF01230023DBB212E0FB68581E83
:1038B0007B6859680B469B000B4499000B44B0FB96
:1038C000F3F30133C3F30B03002B0CBF01230023DD
:1038D000DBB2002B01D0012322E07B689B68002B28
:1038E0000ED1FB68581E7B6859680B465B000B4481
:1038F000B0FBF3F30133C3F30B0343F400430FE0D6
:10390000FB68581E7B6859680B469B000B44990066
:103910000B44B0FBF3F30133C3F30B0343F4404315
:10392000796809681343CB617B681B681B6823F0C7
:10393000C0017B68DA697B681B6A1A437B681B6875
:103940000A431A607B681B689B6823F4034323F0D7
:10395000FF037A6811697A68D26811437A6812683D
:103960000B4393607B681B68DB6823F0FF017B6877
:103970005A697B689B691A437B681B680A43DA6053
:103980007B681B681A687B681B6842F001021A603A
:103990007B6800221A647B68202283F83D207B68C4
:1039A00000221A637B68002283F83E200023184619
:1039B0001037BD4680BD00BFA08601007F841E0079
:1039C000FF083D0083DE1B43D34D621080B588B0F5
:1039D00002AFF860084611461A4603467B810B4643
:1039E0003B811346FB80FFF739FB7861FB6893F856
:1039F0003D30DBB2202B40F0D9807B690093192346
:103A000001226D49F86800F07FFC0346002B01D0CD
:103A10000223CCE0FB6893F83C30012B01D1022358
:103A2000C5E0FB68012283F83C20FB681B681B682B
:103A300003F00103012B07D0FB681B681A68FB68C1
:103A40001B6842F001021A60FB681B681A68FB6879
:103A50001B6822F400621A60FB68212283F83D2073
:103A6000FB68402283F83E20FB6800221A64FB6852
:103A70003A6A5A62FB68BA8C5A85FB685B8D9AB2C7
:103A8000FB681A85FB684D4ADA62F8883A897989B9
:103A90007B690193BB6A00930346F86800F0B6FAAD
:103AA0000346002B52D0012381E07A69B96AF86895
:103AB00000F000FD0346002B0DD0FB681B6C042BAF
:103AC00007D1FB681B681A68FB681B6842F4007228
:103AD0001A6001236BE0FB685B6A1A78FB681B685D
:103AE0001A61FB685B6A5A1CFB685A62FB681B8D93
:103AF000013B9AB2FB681A85FB685B8D9BB2013B68
:103B00009AB2FB685A85FB681B685B6903F0040383
:103B1000042B1BD1FB681B8D002B17D0FB685B6A45
:103B20001A78FB681B681A61FB685B6A5A1CFB68A1
:103B30005A62FB681B8D013B9AB2FB681A85FB68D1
:103B40005B8D9BB2013B9AB2FB685A85FB681B8D6B
:103B5000002BAAD17A69B96AF86800F0ECFC034638
:103B6000002B0DD0FB681B6C042B07D1FB681B6876
:103B70001A68FB681B6842F400721A60012316E0A1
:103B8000FB681B681A68FB681B6842F400721A60C5
:103B9000FB68202283F83D20FB68002283F83E204A
:103BA000FB68002283F83C20002300E00223184633
:103BB0001837BD4680BD00BF020010000000FFFFA7
:103BC00080B58CB002AFF860084611461A4603462D
:103BD0007B810B463B811346FB80FFF73FFA7862FF
:103BE000FB6893F83D30DBB2202B40F008827B6A03
:103BF0000093192301227B49F86800F085FB0346F6
:103C0000002B01D00223FBE1FB6893F83C30012B31
:103C100001D10223F4E1FB68012283F83C20FB6818
:103C20001B681B6803F00103012B07D0FB681B68AE
:103C30001A68FB681B6842F001021A60FB681B6887
:103C40001A68FB681B6822F400621A60FB68222273
:103C500083F83D20FB68402283F83E20FB68002269
:103C60001A64FB683A6B5A62FB68BA8E5A85FB6825
:103C70005B8D9AB2FB681A85FB685B4ADA62F8884A
:103C80003A8979897B6A0193BB6B00930346F86894
:103C900000F052FA0346002B01D00123B0E1FB688B
:103CA0001B8D002B13D100233B62FB681B685B69F3
:103CB0003B62FB681B689B693B623B6AFB681B6855
:103CC0001A68FB681B6842F400721A6084E1FB68A2
:103CD0001B8D012B1BD1FB681B681A68FB681B68D6
:103CE00022F480621A600023FB61FB681B685B6939
:103CF000FB61FB681B689B69FB61FB69FB681B68D8
:103D00001A68FB681B6842F400721A6064E1FB6881
:103D10001B8D022B1BD1FB681B681A68FB681B6894
:103D200022F480621A60FB681B681A68FB681B68D3
:103D300042F400621A600023BB61FB681B685B6988
:103D4000BB61FB681B689B69BB61BB6944E10023E5
:103D50007B61FB681B685B697B61FB681B689B6917
:103D60007B617B6938E1FB681B8D032B00F2F180DE
:103D7000FB681B8D012B23D17A6AB96BF86800F0C0
:103D80001BFC0346002B01D0012339E1FB681B68B3
:103D90001A69FB685B6AD2B21A70FB685B6A5A1CCC
:103DA000FB685A62FB681B8D013B9AB2FB681A855F
:103DB000FB685B8D9BB2013B9AB2FB685A850BE1B5
:103DC000FB681B8D022B4ED17B6A0093BB6B0022DC
:103DD0000649F86800F098FA0346002B08D0012342
:103DE0000EE100BF020010000000FFFF0400010010
:103DF000FB681B681A68FB681B6842F400721A6053
:103E0000FB681B681A69FB685B6AD2B21A70FB68B0
:103E10005B6A5A1CFB685A62FB681B8D013B9AB2B5
:103E2000FB681A85FB685B8D9BB2013B9AB2FB680D
:103E30005A85FB681B681A69FB685B6AD2B21A7004
:103E4000FB685B6A5A1CFB685A62FB681B8D013B6E
:103E50009AB2FB681A85FB685B8D9BB2013B9AB2F4
:103E6000FB685A85B8E07B6A0093BB6B0022664909
:103E7000F86800F049FA0346002B01D00123BFE0A7
:103E8000FB681B681A68FB681B6822F480621A6072
:103E9000FB681B681A69FB685B6AD2B21A70FB6820
:103EA0005B6A5A1CFB685A62FB681B8D013B9AB225
:103EB000FB681A85FB685B8D9BB2013B9AB2FB687D
:103EC0005A857B6A0093BB6B00224F49F86800F06B
:103ED0001BFA0346002B01D0012391E0FB681B680D
:103EE0001A68FB681B6842F400721A60FB681B6862
:103EF0001A69FB685B6AD2B21A70FB685B6A5A1C6B
:103F0000FB685A62FB681B8D013B9AB2FB681A85FD
:103F1000FB685B8D9BB2013B9AB2FB685A85FB68DC
:103F20001B681A69FB685B6AD2B21A70FB685B6A2D
:103F30005A1CFB685A62FB681B8D013B9AB2FB68F6
:103F40001A85FB685B8D9BB2013B9AB2FB685A8570
:103F500042E07A6AB96BF86800F02EFB0346002B4A
:103F600001D001234CE0FB681B681A69FB685B6A9F
:103F7000D2B21A70FB685B6A5A1CFB685A62FB6813
:103F80001B8D013B9AB2FB681A85FB685B8D9BB267
:103F9000013B9AB2FB685A85FB681B685B6903F0BA
:103FA0000403042B18D1FB681B681A69FB685B6A61
:103FB000D2B21A70FB685B6A5A1CFB685A62FB68D3
:103FC0001B8D013B9AB2FB681A85FB685B8D9BB227
:103FD000013B9AB2FB685A85FB681B8D002B7FF46E
:103FE000C2AEFB68202283F83D20FB68002283F8E4
:103FF0003E20FB68002283F83C20002300E00223DF
:1040000018462837BD4680BD0400010080B588B041
:1040100002AFF860084611461A4603467B810B46FC
:104020003B811346FB80FB681B681A68FB681B68B2
:1040300042F480721A607B6A00933B6A00224FF060
:104040000111F86800F060F90346002B0DD0FB6801
:104050001B681B6803F48073B3F5807F03D1FB6892
:104060004FF400721A6403235FE07B89DBB21A46C7
:10407000FB681B6802F0FE021A617B6A3A6A2D49EE
:10408000F86800F098F90346002B01D001234CE0BA
:1040900000237B61FB681B685B697B61FB681B68B5
:1040A0009B697B617B697A6A396AF86800F002FA79
:1040B0000346002B0DD0FB681B6C042B07D1FB685B
:1040C0001B681A68FB681B6842F400721A600123BF
:1040D0002BE0FB88012B05D13B89DAB2FB681B681A
:1040E0001A6121E03B891B0A9BB2DAB2FB681B68AC
:1040F0001A617A6A396AF86800F0DCF90346002B25
:104100000DD0FB681B6C042B07D1FB681B681A6879
:10411000FB681B6842F400721A60012305E03B89CA
:10412000DAB2FB681B681A61002318461837BD46CF
:1041300080BD00BF0200010080B588B002AFF8600A
:10414000084611461A4603467B810B463B811346BF
:10415000FB80FB681B681A68FB681B6842F480627E
:104160001A60FB681B681A68FB681B6842F480725F
:104170001A607B6A00933B6A00224FF00111F868D5
:1041800000F0C2F80346002B0DD0FB681B681B68CB
:1041900003F48073B3F5807F03D1FB684FF40072A2
:1041A0001A640323AAE07B89DBB21A46FB681B680A
:1041B00002F0FE021A617B6A3A6A5249F86800F01E
:1041C000FAF80346002B01D0012397E000237B611E
:1041D000FB681B685B697B61FB681B689B697B6193
:1041E0007B697A6A396AF86800F064F90346002B43
:1041F0000DD0FB681B6C042B07D1FB681B681A6889
:10420000FB681B6842F400721A60012376E0FB88A9
:10421000012B05D13B89DAB2FB681B681A6121E0EA
:104220003B891B0A9BB2DAB2FB681B681A617A6A87
:10423000396AF86800F03EF90346002B0DD0FB68A0
:104240001B6C042B07D1FB681B681A68FB681B6892
:1042500042F400721A60012350E03B89DAB2FB6835
:104260001B681A617A6A396AF86800F023F9034614
:10427000002B0DD0FB681B6C042B07D1FB681B685F
:104280001A68FB681B6842F400721A60012335E06B
:10429000FB681B681A68FB681B6842F480721A602E
:1042A0007B6A00933B6A00224FF00111F86800F02E
:1042B0002BF80346002B0DD0FB681B681B6803F42A
:1042C0008073B3F5807F03D1FB684FF400721A64EA
:1042D000032313E07B89DBB243F00103DAB2FB680E
:1042E0001B681A617B6A3A6A0649F86800F063F84D
:1042F0000346002B01D0012300E0002318461837A5
:10430000BD4680BD0200010080B584B000AFF860FA
:10431000B9603B601346FB7125E03B68B3F1FF3F9A
:1043200021D0FEF79BFE0246BB69D31A3A689A4237
:1043300002D33B68002B16D1FB6800221A63FB688E
:10434000202283F83D20FB68002283F83E20FB6892
:104350001B6C43F02002FB681A64FB68002283F8A0
:104360003C20012323E0BB681B0CDBB2012B0DD1E9
:10437000FB681B685B69DA43BB6813409BB2002B88
:104380000CBF01230023DBB21A460CE0FB681B685C
:104390009B69DA43BB6813409BB2002B0CBF01231F
:1043A0000023DBB21A46FB799A42B6D000231846A6
:1043B0001037BD4680BD80B584B000AFF860B960ED
:1043C0007A603B6051E0FB681B685B6903F48063C3
:1043D000B3F5806F23D1FB681B681A68FB681B6804
:1043E00042F400721A60FB681B686FF480625A61C5
:1043F000FB6800221A63FB68202283F83D20FB68DB
:10440000002283F83E20FB681B6C43F00402FB682B
:104410001A64FB68002283F83C20012346E07B6895
:10442000B3F1FF3F21D0FEF719FE02463B68D31AD5
:104430007A689A4202D37B68002B16D1FB6800226F
:104440001A63FB68202283F83D20FB68002283F872
:104450003E20FB681B6C43F02002FB681A64FB687B
:10446000002283F83C20012320E0BB681B0CDBB258
:10447000012B0CD1FB681B685B69DA43BB681340F6
:104480009BB2002B14BF01230023DBB20BE0FB68BF
:104490001B689B69DA43BB6813409BB2002B14BFB7
:1044A00001230023DBB2002B8DD1002318461037E7
:1044B000BD4680BD80B584B000AFF860B9607A6059
:1044C0002DE0F86800F0CEF80346002B01D0012360
:1044D0002DE0BB68B3F1FF3F21D0FEF7BFFD0246E0
:1044E0007B68D31ABA689A4202D3BB68002B16D1F4
:1044F000FB6800221A63FB68202283F83D20FB68DA
:10450000002283F83E20FB681B6C43F02002FB680E
:104510001A64FB68002283F83C20012307E0FB6853
:104520001B685B6903F08003802BCAD10023184607
:104530001037BD4680BD80B584B000AFF860B9606B
:104540007A602DE0F86800F08DF80346002B01D06A
:1045500001232DE0BB68B3F1FF3F21D0FEF77EFDC4
:1045600002467B68D31ABA689A4202D3BB68002B12
:1045700016D1FB6800221A63FB68202283F83D20D5
:10458000FB68002283F83E20FB681B6C43F020028E
:10459000FB681A64FB68002283F83C20012307E0D3
:1045A000FB681B685B6903F00403042BCAD100237A
:1045B00018461037BD4680BD80B584B000AFF860A6
:1045C000B9607A6042E0FB681B685B6903F0100326
:1045D000102B19D1FB681B686FF010025A61FB6841
:1045E00000221A63FB68202283F83D20FB6800222A
:1045F00083F83E20FB681A6CFB681A64FB68002293
:1046000083F83C20012329E0FEF728FD02467B6861
:10461000D31ABA689A4202D3BB68002B16D1FB6842
:1046200000221A63FB68202283F83D20FB680022E9
:1046300083F83E20FB681B6C43F02002FB681A6481
:10464000FB68002283F83C20012307E0FB681B681D
:104650005B6903F04003402BB5D1002318461037A7
:10466000BD4680BD80B483B000AF78607B681B68B6
:104670005B6903F48063B3F5806F1BD17B681B68B3
:104680006FF480625A617B6800221A637B68202283
:1046900083F83D207B68002283F83E207B681B6CFA
:1046A00043F004027B681A647B68002283F83C2094
:1046B000012300E0002318460C37BD465DF8047B5B
:1046C0007047000080B483B000AF064B01221A602F
:1046D000054B1B687B607B6800BF0C37BD465DF8EF
:1046E000047B704720000E420070004080B483B00D
:1046F00000AF064B00221A60054B1B687B607B688D
:1047000000BF0C37BD465DF8047B704720000E42A9
:104710000070004080B586B000AF78607B68002BE9
:1047200001D1012367E27B681B6803F00103002BC2
:1047300075D0884B9B6803F00C03042B0CD0854B81
:104740009B6803F00C03082B12D1824B5B6803F4C7
:104750008003B3F5800F0BD17E4B1B6803F400334D
:10476000002B5BD07B685B68002B57D1012342E2B2
:104770007B685B68B3F5803F06D1764B1B68754A52
:1047800043F4803313601DE07B685B68B3F5A02FB2
:104790000CD1704B1B686F4A43F4802313606D4B40
:1047A0001B686C4A43F4803313600BE0694B1B6851
:1047B000684A23F480331360664B1B68654A23F410
:1047C000802313607B685B68002B13D0FEF746FCE8
:1047D000386108E0FEF742FC02463B69D31A642BBD
:1047E00001D9032307E25B4B1B6803F40033002B62
:1047F000F0D014E0FEF732FC386108E0FEF72EFC42
:1048000002463B69D31A642B01D90323F3E1514BD0
:104810001B6803F40033002BF0D100E000BF7B687D
:104820001B6803F00203002B63D04A4B9B6803F024
:104830000C03002B0BD0474B9B6803F00C03082B99
:104840001CD1444B5B6803F48003002B16D1414B11
:104850001B6803F00203002B05D07B68DB68012B8B
:1048600001D00123C7E13B4B1B6823F0F8027B68B2
:104870001B69DB00374913430B603AE07B68DB6858
:10488000002B20D0344B01221A60FEF7E7FB386181
:1048900008E0FEF7E3FB02463B69D31A022B01D97D
:1048A0000323A8E12B4B1B6803F00203002BF0D07D
:1048B000284B1B6823F0F8027B681B69DB00254945
:1048C00013430B6015E0244B00221A60FEF7C6FB71
:1048D000386108E0FEF7C2FB02463B69D31A022B9F
:1048E00001D9032387E11B4B1B6803F00203002B54
:1048F000F0D17B681B6803F00803002B36D07B687F
:104900005B69002B16D0154B01221A60FEF7A6FB3F
:10491000386108E0FEF7A2FB02463B69D31A022B7E
:1049200001D9032367E10B4B5B6F03F00203002BFC
:10493000F0D01BE0094B00221A60FEF78FFB3861B4
:104940000EE0FEF78BFB02463B69D31A022B07D918
:10495000032350E10038024000004742800E4742E6
:10496000884B5B6F03F00203002BEAD17B681B6866
:1049700003F00403002B00F097800023FB75814BAC
:104980001B6C03F08053002B0FD10023BB607D4BC9
:104990001B6C7C4A43F0805313647A4B1B6C03F00E
:1049A0008053BB60BB680123FB75774B1B6803F426
:1049B0008073002B18D1744B1B68734A43F48073C7
:1049C0001360FEF74BFB386108E0FEF747FB024639
:1049D0003B69D31A022B01D903230CE16A4B1B68F4
:1049E00003F48073002BF0D07B689B68012B06D109
:1049F000644B1B6F634A43F0010313671CE07B6841
:104A00009B68052B0CD15F4B1B6F5E4A43F0040380
:104A100013675C4B1B6F5B4A43F0010313670BE0AA
:104A2000584B1B6F574A23F001031367554B1B6FFD
:104A3000544A23F0040313677B689B68002B15D04E
:104A4000FEF70CFB38610AE0FEF708FB02463B6903
:104A5000D31A41F28832934201D90323CBE0494B68
:104A60001B6F03F00203002BEED014E0FEF7F6FA02
:104A700038610AE0FEF7F2FA02463B69D31A41F2C6
:104A80008832934201D90323B5E03E4B1B6F03F0FC
:104A90000203002BEED1FB7D012B05D1394B1B6CA2
:104AA000384A23F0805313647B689B69002B00F025
:104AB000A180344B9B6803F00C03082B5CD07B680F
:104AC0009B69022B41D1314B00221A60FEF7C6FAD6
:104AD000386108E0FEF7C2FA02463B69D31A022B9E
:104AE00001D9032387E0274B1B6803F00073002BD9
:104AF000F0D17B68DA697B681B6A1A437B685B6A62
:104B00009B011A437B689B6A5B08013B1B041A43A9
:104B10007B68DB6A1B061B4913434B601B4B01225E
:104B20001A60FEF79BFA386108E0FEF797FA024632
:104B30003B69D31A022B01D903235CE0114B1B689C
:104B400003F00073002BF0D054E0104B00221A60E9
:104B5000FEF784FA386108E0FEF780FA02463B6906
:104B6000D31A022B01D9032345E0064B1B6803F03F
:104B70000073002BF0D13DE07B689B69012B07D1CE
:104B8000012338E0003802400070004060004742D6
:104B90001B4B5B68FB607B689B69012B28D0FB6823
:104BA00003F480027B68DB699A4221D1FB6803F041
:104BB0003F027B681B6A9A421AD1FA6847F6C073B3
:104BC00013407A68526A9201934211D1FB6803F450
:104BD00040327B689B6A5B08013B1B049A4207D109
:104BE000FB6803F070627B68DB6A1B069A4201D0A7
:104BF000012300E0002318461837BD4680BD00BFE2
:104C00000038024080B584B000AF786039607B68BE
:104C1000002B01D10123CCE0684B1B6803F0070394
:104C20003A689A420CD9654B3A68D2B21A70634B13
:104C30001B6803F007033A689A4201D00123B8E0E9
:104C40007B681B6803F00203002B20D07B681B6885
:104C500003F00403002B05D0594B9B68584A43F4DA
:104C6000E05393607B681B6803F00803002B05D0BA
:104C7000534B9B68524A43F460439360504B9B688C
:104C800023F0F0027B689B684D4913438B607B687F
:104C90001B6803F00103002B44D07B685B68012B89
:104CA00007D1474B1B6803F40033002B19D10123B4
:104CB0007FE07B685B68022B03D07B685B68032B1B
:104CC00007D13F4B1B6803F00073002B09D1012370
:104CD0006FE03B4B1B6803F00203002B01D1012363
:104CE00067E0374B9B6823F003027B685B683449BD
:104CF00013438B60FEF7B2F9F8600AE0FEF7AEF9F5
:104D00000246FB68D31A41F28832934201D9032349
:104D10004FE02B4B9B6803F00C027B685B689B00A9
:104D20009A42EBD1254B1B6803F007033A689A427D
:104D30000CD2224B3A68D2B21A70204B1B6803F097
:104D400007033A689A4201D0012332E07B681B686E
:104D500003F00403002B08D0194B9B6823F4E052A6
:104D60007B68DB68164913438B607B681B6803F024
:104D70000803002B09D0124B9B6823F460427B6828
:104D80001B69DB000E4913438B6000F021F80246DB
:104D90000B4B9B681B0903F00F030A49CB5C22FAFB
:104DA00003F3094A1360094B1B681846FDF778FFA7
:104DB000002318461037BD4680BD00BF003C0240AE
:104DC00000380240F0D8000824000020280000200D
:104DD0002DE9B04F94B000AF00237B640023FB6447
:104DE00000233B640023BB64794B9B6803F00C03F6
:104DF000082B0DD0082B00F2E180002B02D0042BF1
:104E000003D0DBE0734BBB64DBE0734BBB64D8E0E7
:104E10006F4B5B6803F03F037B646D4B5B6803F48F
:104E20008003002B63D06A4B5B689B090022BB6345
:104E3000FA63BB6BC3F308033B6300237B63D7E9CF
:104E40000C4522462B464FF000004FF0000159015F
:104E500041EAD261500102460B462146511A39619E
:104E6000294663EB01037B614FF000024FF0000322
:104E7000D7E904AB59468B01514643EA9163514649
:104E80008A015146B2EB0108594663EB01094FF024
:104E900000024FF000034FEAC90343EA58734FEA98
:104EA000C80290469946234618EB0303BB602B4685
:104EB00049EB0303FB604FF000024FF00003D7E91A
:104EC000024529464B02214643EAD15321464A0274
:104ED000104619467B6C0022BB62FA62D7E90A23AE
:104EE000FBF7D2FE02460B461346FB6458E0384BF4
:104EF0005B689B09002218461146C0F308033B6219
:104F000000237B62D7E9088942464B464FF00000F8
:104F10004FF00001590141EAD261500102460B46AF
:104F20004146B2EB010A494663EB010B4FF0000228
:104F30004FF000034FEA8B1343EA9A634FEA8A1259
:104F4000B2EB0A0463EB0B054FF000024FF00003D5
:104F5000EB0043EA5473E20014461D464346E3184F
:104F60003B604B4645EB03037B604FF000024FF084
:104F70000003D7E9004529468B02214643EA9153B5
:104F800021468A02104619467B6C0022BB61FA61F9
:104F9000D7E90623FBF778FE02460B461346FB646F
:104FA0000B4B5B681B0C03F0030301335B003B649A
:104FB000FA6C3B6CB2FBF3F3BB6402E0054BBB64E1
:104FC00000BFBB6C18465037BD46BDE8B08F00BF70
:104FD000003802400024F40000127A0080B400AFD0
:104FE000034B1B681846BD465DF8047B704700BF45
:104FF0002400002080B500AFFFF7F0FF0246054B0C
:105000009B689B0A03F007030349CB5C22FA03F376
:10501000184680BD0038024000D9000880B500AFB6
:10502000FFF7DCFF0246054B9B685B0B03F00703B1
:105030000349CB5C22FA03F3184680BD00380240D6
:1050400000D9000880B483B000AF786039607B6815
:105050000F221A60124B9B6803F003027B685A60B0
:105060000F4B9B6803F0F0027B689A600C4B9B68C7
:1050700003F4E0527B68DA60094B9B68DB0803F4B9
:10508000E0527B681A61074B1B6803F007023B681C
:105090001A6000BF0C37BD465DF8047B704700BF47
:1050A00000380240003C024080B582B000AF78601A
:1050B0007B68002B01D1012341E07B6893F83D30F0
:1050C000DBB2002B06D17B68002283F83C20786895
:1050D000FDF752FC7B68022283F83D207B681A684A
:1050E0007B6804331946104600F0AEFD7B68012250
:1050F00083F846207B68012283F83E207B680122EA
:1051000083F83F207B68012283F840207B680122DE
:1051100083F841207B68012283F842207B680122CA
:1051200083F843207B68012283F844207B680122B6
:1051300083F845207B68012283F83D200023184630
:105140000837BD4680BD000080B485B000AF7860F0
:105150007B6893F83D30DBB2012B01D001234EE098
:105160007B68022283F83D207B681B68DA687B68D5
:105170001B6842F00102DA607B681B68234A934295
:1051800022D07B681B68B3F1804F1DD07B681B6801
:105190001F4A934218D07B681B681E4A934213D063
:1051A0007B681B681C4A93420ED07B681B681B4AB5
:1051B000934209D07B681B68194A934204D07B68EC
:1051C0001B68184A934211D17B681B689B6803F0E7
:1051D0000703FB60FB68062B10D07B681B681A680E
:1051E0007B681B6842F001021A6007E07B681B685D
:1051F0001A687B681B6842F001021A600023184697
:105200001437BD465DF8047B704700BF00000140C5
:105210000004004000080040000C00400004014071
:10522000004001400018004080B582B000AF7860B7
:105230007B68002B01D1012341E07B6893F83D306E
:10524000DBB2002B06D17B68002283F83C20786813
:1052500000F039F87B68022283F83D207B681A68E9
:105260007B6804331946104600F0EEFC7B6801228F
:1052700083F846207B68012283F83E207B68012268
:1052800083F83F207B68012283F840207B6801225D
:1052900083F841207B68012283F842207B68012249
:1052A00083F843207B68012283F844207B68012235
:1052B00083F845207B68012283F83D2000231846AF
:1052C0000837BD4680BD80B483B000AF786000BFB2
:1052D0000C37BD465DF8047B7047000080B584B094
:1052E00000AF786039603B68002B09D17B6893F888
:1052F0003E30DBB2012B14BF01230023DBB222E0DE
:105300003B68042B09D17B6893F83F30DBB2012B5B
:1053100014BF01230023DBB215E03B68082B09D141
:105320007B6893F84030DBB2012B14BF01230023CC
:10533000DBB208E07B6893F84130DBB2012B14BF8D
:1053400001230023DBB2002B01D001237CE03B686A
:10535000002B04D17B68022283F83E2013E03B68D7
:10536000042B04D17B68022283F83F200BE03B68CA
:10537000082B04D17B68022283F8402003E07B687D
:10538000022283F841207B681B6801223968184695
:1053900000F044FF7B681B682D4A934204D07B6871
:1053A0001B682C4A934201D1012300E00023002B0B
:1053B00007D07B681B685A6C7B681B6842F400420C
:1053C0005A647B681B68224A934222D07B681B6820
:1053D000B3F1804F1DD07B681B681F4A934218D0E1
:1053E0007B681B681D4A934213D07B681B681C4A6C
:1053F00093420ED07B681B68164A934209D07B68A3
:105400001B68184A934204D07B681B68164A934273
:1054100011D17B681B689B6803F00703FB60FB6886
:10542000062B10D07B681B681A687B681B6842F0EB
:1054300001021A6007E07B681B681A687B681B68BA
:1054400042F001021A60002318461037BD4680BDA5
:10545000000001400004014000040040000800403A
:10546000000C0040004001400018004080B586B0AC
:1054700000AF786039607B68002B01D1012397E091
:105480007B6893F83D30DBB2002B06D17B680022AD
:1054900083F83C207868FDF7CDFA7B68022283F818
:1054A0003D207B681B689B687A68126823F4804300
:1054B00023F0070393607B681A687B6804331946FE
:1054C000104600F0C1FB7B681B689B687B617B68B2
:1054D0001B689B693B617B681B681B6AFB603B68C0
:1054E0001B687A6913437B613B6923F4407323F0A3
:1054F00003033B613B689A683B689B691B0213434B
:105500003A6913433B613B6923F4406323F00C0386
:105510003B613B6923F4704323F0F0033B613B683C
:10552000DA683B68DB691B0213433A6913433B614A
:105530003B681B691A013B681B6A1B0313433A69EA
:1055400013433B61FB6823F02203FB60FB6823F0FD
:105550008803FB603B685A683B685B691B01134327
:10556000FA681343FB607B681B687A699A607B6802
:105570001B683A699A617B681B68FA681A627B68E3
:10558000012283F846207B68012283F83E207B6855
:10559000012283F83F207B68012283F842207B6848
:1055A000012283F843207B68012283F83D200023F9
:1055B00018461837BD4680BD80B584B000AF78600E
:1055C00039607B6893F83E30FB737B6893F83F301B
:1055D000BB737B6893F842307B737B6893F84330EE
:1055E0003B733B68002B10D1FB7B012B02D17B7BF3
:1055F000012B01D0012369E07B68022283F83E2061
:105600007B68022283F8422031E03B68042B10D1F2
:10561000BB7B012B02D13B7B012B01D0012355E049
:105620007B68022283F83F207B68022283F84320B4
:105630001DE0FB7B012B08D1BB7B012B05D17B7BC4
:10564000012B02D13B7B012B01D001233EE07B6883
:10565000022283F83E207B68022283F83F207B6889
:10566000022283F842207B68022283F843203B68B1
:10567000002B03D03B68042B08D00FE07B681B682D
:1056800001220021184600F0C9FD16E07B681B6866
:1056900001220421184600F0C1FD0EE07B681B6862
:1056A00001220021184600F0B9FD7B681B68012229
:1056B0000421184600F0B2FD00BF7B681B681A6821
:1056C0007B681B6842F001021A60002318461037FD
:1056D000BD4680BD80B582B000AF78607B681B6836
:1056E0001B6903F00203022B22D17B681B68DB6875
:1056F00003F00203022B1BD17B681B686FF00202D0
:105700001A617B6801221A777B681B689B6903F02A
:105710000303002B03D0786800F077FA05E078687F
:1057200000F069FA786800F07AFA7B6800221A774C
:105730007B681B681B6903F00403042B22D17B6880
:105740001B68DB6803F00403042B1BD17B681B6818
:105750006FF004021A617B6802221A777B681B686B
:105760009B6903F44073002B03D0786800F04DFA76
:1057700005E0786800F03FFA786800F050FA7B683E
:1057800000221A777B681B681B6903F00803082B4B
:1057900022D17B681B68DB6803F00803082B1BD150
:1057A0007B681B686FF008021A617B6804221A7715
:1057B0007B681B68DB6903F00303002B03D0786868
:1057C00000F023FA05E0786800F015FA786800F038
:1057D00026FA7B6800221A777B681B681B6903F036
:1057E0001003102B22D17B681B68DB6803F01003C9
:1057F000102B1BD17B681B686FF010021A617B684D
:1058000008221A777B681B68DB6903F44073002B5E
:1058100003D0786800F0F9F905E0786800F0EBF95A
:10582000786800F0FCF97B6800221A777B681B68B7
:105830001B6903F00103012B0ED17B681B68DB6839
:1058400003F00103012B07D17B681B686FF0010295
:105850001A617868FCF768FE7B681B681B6903F0B7
:105860008003802B0ED17B681B68DB6803F080030C
:10587000802B07D17B681B686FF080021A61786803
:1058800000F0CAFD7B681B681B6903F04003402BD6
:105890000ED17B681B68DB6803F04003402B07D107
:1058A0007B681B686FF040021A61786800F0C1F9EC
:1058B0007B681B681B6903F02003202B0ED17B68DB
:1058C0001B68DB6803F02003202B07D17B681B6873
:1058D0006FF020021A61786800F094FD00BF08376D
:1058E000BD4680BD80B586B000AFF860B9607A6013
:1058F0000023FB75FB6893F83C30012B01D1022398
:10590000AEE0FB68012283F83C207B680C2B00F2A0
:105910009F8001A252F823F04D590008515A000807
:10592000515A0008515A00088D590008515A000870
:10593000515A0008515A0008CF590008515A00081E
:10594000515A0008515A00080F5A0008FB681B689A
:10595000B968184600F018FAFB681B689A69FB687A
:105960001B6842F008029A61FB681B689A69FB6831
:105970001B6822F004029A61FB681B689969BB6886
:105980001A69FB681B680A439A6164E0FB681B683C
:10599000B968184600F068FAFB681B689A69FB68EA
:1059A0001B6842F400629A61FB681B689A69FB6895
:1059B0001B6822F480629A61FB681B689969BB6866
:1059C0001B691A02FB681B680A439A6143E0FB6883
:1059D0001B68B968184600F0BDFAFB681B68DA69F5
:1059E000FB681B6842F00802DA61FB681B68DA6931
:1059F000FB681B6822F00402DA61FB681B68D96946
:105A0000BB681A69FB681B680A43DA6123E0FB681C
:105A10001B68B968184600F011FBFB681B68DA695F
:105A2000FB681B6842F40062DA61FB681B68DA6994
:105A3000FB681B6822F48062DA61FB681B68D96925
:105A4000BB681B691A02FB681B680A43DA6102E043
:105A50000123FB7500BFFB68002283F83C20FB7D1F
:105A600018461837BD4680BD80B584B000AF786059
:105A700039600023FB737B6893F83C30012B01D124
:105A80000223B4E07B68012283F83C207B68022279
:105A900083F83D207B681B689B68BB60BB6823F074
:105AA0007703BB60BB6823F47F43BB607B681B68E4
:105AB000BA689A603B681B68B3F5005F3ED0B3F5E7
:105AC000005F00F28780B3F5805F00F08680B3F559
:105AD000805F7FD8702B1AD0702B7BD8602B50D072
