:020000040800F2
:1000000000000220911D00088D1B0008931B0008B2
:10001000991B00089F1B0008A51B0008000000009A
:10002000000000000000000000000000AB1B000802
:10003000B91B000800000000C71B0008D51B000802
:10004000E11D0008E11D0008E11D0008E11D000898
:10005000E11D0008E11D0008E11D0008E11D000888
:10006000E11D0008E11D0008E11D0008E11D000878
:10007000E11D0008E11D0008E11D0008E11D000868
:10008000E11D0008E11D0008E11D0008E11D000858
:10009000E11D0008E11D0008E11D0008E11D000848
:1000A000E11D0008E11D0008E11D0008E11D000838
:1000B000E11D0008E11D0008E11D0008E11D000828
:1000C000E11D0008E11D0008E11D0008E11D000818
:1000D000E11D0008E11D0008E11D0008E11D000808
:1000E000E11D0008E11D0008E11D0008E11D0008F8
:1000F000E11D0008E11D0008E11D0008E11D0008E8
:10010000E11D0008E11D0008E11D0008E11D0008D7
:10011000E11D0008E11D0008E11D0008E11D0008C7
:10012000E11D0008E11D0008E11D0008E11D0008B7
:10013000E11D0008E11D0008E11D0008E11D0008A7
:10014000E11D0008E11D0008E11D0008E11D000897
:10015000E11D0008E11D0008E11D0008E11D000887
:10016000E11D0008E11D0008E11D0008E11D000877
:10017000E11D0008E11D0008E11D0008000000006D
:08018000E11D0008E11D00086B
:1001900010B5054C237833B9044B13B10448AFF3C1
:1001A00000800123237010BDDC010020000000004E
:1001B0000072000808B5034B1BB103490348AFF3B5
:1001C000008008BD00000000E0010020007200086F
:1001D000034613F8012B002AFBD1181A0138704787
:1001E00001F0FF01102A2BDB10F0070F08D010F8E8
:1001F000013B013A8B422DD010F0070F42B3F6D1EC
:10020000F0B441EA012141EA014122F007047FF004
:1002100000070023F0E80256083C85EA010586EA5B
:10022000010685FA47F5A3FA87F586FA47F6A5FA97
:1002300087F68EB9EED1F0BC01F0FF0102F00702A3
:1002400032B110F8013B013A83EA010313B1F8D14E
:100250000020704701387047002D06BF354603382F
:10026000073815F0010F07D1013015F4807F02BF68
:10027000013015F4C03F0130F0BC0138704700BFB9
:1002800081F0004102E000BF83F0004330B54FEA47
:1002900041044FEA430594EA050F08BF90EA020FB4
:1002A0001FBF54EA000C55EA020C7FEA645C7FEA47
:1002B000655C00F0E2804FEA5454D4EB5555B8BF6A
:1002C0006D420CDD2C4480EA020281EA030382EADB
:1002D000000083EA010180EA020281EA0303362D6D
:1002E00088BF30BD11F0004F4FEA01314FF4801C40
:1002F0004CEA113102D0404261EB410113F0004F52
:100300004FEA03334CEA133302D0524263EB430308
:1003100094EA050F00F0A780A4F10104D5F1200EA6
:100320000DDB02FA0EFC22FA05F2801841F1000101
:1003300003FA0EF2801843FA05F359410EE0A5F1D5
:1003400020050EF1200E012A03FA0EFC28BF4CF006
:10035000020C43FA05F3C01851EBE37101F00045BC
:1003600007D54FF0000EDCF1000C7EEB00006EEBC9
:100370000101B1F5801F1BD3B1F5001F0CD3490853
:100380005FEA30004FEA3C0C04F101044FEA4452AA
:1003900012F5800F80F09A80BCF1004F08BF5FEA31
:1003A000500C50F1000041EB045141EA050130BD11
:1003B0005FEA4C0C404141EB0101013C28BFB1F523
:1003C000801FE9D291F0000F04BF01460020B1FA6E
:1003D00081F308BF2033A3F10B03B3F120020CDA41
:1003E0000C3208DD02F1140CC2F10C0201FA0CF01F
:1003F00021FA02F10CE002F11402D8BFC2F1200C84
:1004000001FA02F120FA0CFCDCBF41EA0C01904039
:10041000E41AA2BF01EB0451294330BD6FEA040482
:100420001F3C1CDA0C340EDC04F11404C4F120026D
:1004300020FA04F001FA02F340EA030021FA04F37F
:1004400045EA030130BDC4F10C04C4F1200220FAD6
:1004500002F001FA04F340EA0300294630BD21FA14
:1004600004F0294630BD94F0000F83F4801306BFDA
:1004700081F480110134013D4EE77FEA645C18BFCE
:100480007FEA655C29D094EA050F08BF90EA020F65
:1004900005D054EA000C04BF1946104630BD91EA5D
:1004A000030F1EBF0021002030BD5FEA545C05D160
:1004B0004000494128BF41F0004130BD14F580049F
:1004C0003CBF01F5801130BD01F0004545F0FE4113
:1004D00041F470014FF0000030BD7FEA645C1ABF48
:1004E000194610467FEA655C1CBF0B46024650EA7F
:1004F000013406BF52EA033591EA030F41F40021AB
:1005000030BD00BF90F0000F04BF0021704730B530
:100510004FF4806404F132044FF000054FF0000105
:1005200050E700BF90F0000F04BF0021704730B5C6
:100530004FF4806404F1320410F0004548BF40429B
:100540004FF000013EE700BF42004FEAE2014FEAF0
:1005500031014FEA02701FBF12F07F4393F07F4FCB
:1005600081F06051704732F07F4208BF704793F0CE
:100570007F4F04BF41F40021704730B54FF46074E1
:1005800001F0004521F000411CE700BF50EA0102E4
:1005900008BF704730B54FF000050AE050EA01028D
:1005A00008BF704730B511F0004502D5404261EBFD
:1005B00041014FF4806404F132045FEA915C3FF43E
:1005C000D8AE4FF003025FEADC0C18BF03325FEADB
:1005D000DC0C18BF033202EBDC02C2F1200300FA8C
:1005E00003FC20FA02F001FA03FE40EA0E0021FAB1
:1005F00002F11444BDE600BF70B54FF0FF0C4CF49F
:10060000E06C1CEA11541DBF1CEA135594EA0C0F50
:1006100095EA0C0F00F0DEF82C4481EA030621EA8B
:100620004C5123EA4C5350EA013518BF52EA0335C6
:1006300041F4801143F4801338D0A0FB02CE4FF078
:100640000005E1FB02E506F00042E0FB03E54FF0A8
:100650000006E1FB03569CF0000F18BF4EF0010EA0
:10066000A4F1FF04B6F5007F64F5407404D25FEA9C
:100670004E0E6D4146EB060642EAC62141EA55514F
:100680004FEAC52040EA5E504FEACE2EB4F1FD0C91
:1006900088BFBCF5E06F1ED8BEF1004F08BF5FEA0F
:1006A000500E50F1000041EB045170BD06F00046C1
:1006B00046EA010140EA020081EA0301B4EB5C046E
:1006C000C2BFD4EB0C0541EA045170BD41F4801166
:1006D0004FF0000E013C00F3AB8014F1360FDEBF8B
:1006E000002001F0004170BDC4F10004203C35DA67
:1006F0000C341BDC04F11404C4F1200500FA05F3EA
:1007000020FA04F001FA05F240EA020001F000428A
:1007100021F0004110EBD37021FA04F642EB060100
:100720005EEA430E08BF20EAD37070BDC4F10C042A
:10073000C4F1200500FA04F320FA05F001FA04F2EE
:1007400040EA020001F0004110EBD37041F10001DA
:100750005EEA430E08BF20EAD37070BDC4F12005E5
:1007600000FA05F24EEA020E20FA04F301FA05F24D
:1007700043EA020321FA04F001F0004121FA04F2F5
:1007800020EA020000EBD3705EEA430E08BF20EAC5
:10079000D37070BD94F0000F0FD101F000464000FF
:1007A00041EB010111F4801F08BF013CF7D041EA81
:1007B000060195F0000F18BF704703F00046520085
:1007C00043EB030313F4801F08BF013DF7D043EA56
:1007D0000603704794EA0C0F0CEA135518BF95EA0C
:1007E0000C0F0CD050EA410618BF52EA4306D1D193
:1007F00081EA030101F000414FF0000070BD50EAB2
:10080000410606BF1046194652EA430619D094EA3B
:100810000C0F02D150EA013613D195EA0C0F05D125
:1008200052EA03361CBF104619460AD181EA030179
:1008300001F0004141F0FE4141F470014FF0000031
:1008400070BD41F0FE4141F4780170BD70B54FF0CC
:10085000FF0C4CF4E06C1CEA11541DBF1CEA13554C
:1008600094EA0C0F95EA0C0F00F0A7F8A4EB05042E
:1008700081EA030E52EA03354FEA013100F0888025
:100880004FEA03334FF0805545EA131343EA1263EE
:100890004FEA022245EA111545EA10654FEA0026A3
:1008A0000EF000419D4208BF964244F1FD0404F55C
:1008B000407402D25B084FEA3202B61A65EB0305B8
:1008C0005B084FEA32024FF480104FF4002CB6EB75
:1008D000020E75EB030E22BFB61A754640EA0C00F5
:1008E0005B084FEA3202B6EB020E75EB030E22BF35
:1008F000B61A754640EA5C005B084FEA3202B6EB76
:10090000020E75EB030E22BFB61A754640EA9C0034
:100910005B084FEA3202B6EB020E75EB030E22BF04
:10092000B61A754640EADC0055EA060E18D04FEAC2
:10093000051545EA16754FEA06164FEAC30343EA62
:1009400052734FEAC2025FEA1C1CC0D111F4801F2F
:100950000BD141EA00014FF000004FF0004CB6E728
:1009600011F4801F04BF01430020B4F1FD0C88BFC7
:10097000BCF5E06F3FF6AFAEB5EB030C04BFB6EBD2
:10098000020C5FEA500C50F1000041EB045170BDC5
:100990000EF0004E4EEA113114EB5C04C2BFD4EBF2
:1009A0000C0541EA045170BD41F480114FF0000E76
:1009B000013C90E645EA060E8DE60CEA135594EAF2
:1009C0000C0F08BF95EA0C0F3FF43BAF94EA0C0FF5
:1009D0000AD150EA01347FF434AF95EA0C0F7FF46A
:1009E00025AF104619462CE795EA0C0F06D152EABE
:1009F00003353FF4FDAE1046194622E750EA4106A2
:100A000018BF52EA43067FF4C5AE50EA41047FF4B2
:100A10000DAF52EA43057FF4EBAE12E74FF0FF3C17
:100A200006E000BF4FF0010C02E000BF4FF0010CE8
:100A30004DF804CD4FEA410C7FEA6C5C4FEA430C61
:100A400018BF7FEA6C5C1BD001B050EA410C0CBFB0
:100A500052EA430C91EA030F02BF90EA020F002012
:100A6000704710F1000F91EA030F58BF994208BF79
:100A700090422CBFD8176FEAE37040F00100704736
:100A80004FEA410C7FEA6C5C02D150EA013C07D18D
:100A90004FEA430C7FEA6C5CD6D152EA033CD3D0D8
:100AA0005DF8040B704700BF8446104662468C46D2
:100AB0001946634600E000BF01B5FFF7B7FF002805
:100AC00048BF10F1000F01BD4DF808EDFFF7F4FF2E
:100AD0000CBF012000205DF808FB00BF4DF808EDB9
:100AE000FFF7EAFF34BF012000205DF808FB00BFDC
:100AF0004DF808EDFFF7E0FF94BF012000205DF8FE
:100B000008FB00BF4DF808EDFFF7CEFF94BF0120B2
:100B100000205DF808FB00BF4DF808EDFFF7C4FFAB
:100B200034BF012000205DF808FB00BF4FEA410CF4
:100B30007FEA6C5C02D150EA013C0AD14FEA430CD7
:100B40007FEA6C5C02D152EA033C02D14FF0000014
:100B500070474FF0010070474FEA410212F5001252
:100B600015D211D56FF47873B3EB625212D94FEAF4
:100B7000C12343F0004343EA505311F0004F23FADE
:100B800002F018BF404270474FF00000704750EA33
:100B9000013005D111F0004008BF6FF000407047F0
:100BA0004FF00000704700BF53B94AB9002908BF91
:100BB00000281CBF4FF0FF314FF0FF3000F074B938
:100BC000ADF1080C6DE904CE00F006F8DDF804E0A4
:100BD000DDE9022304B070472DE9F047089D044683
:100BE0008E46002B4DD18A42944669D9B2FA82F2E0
:100BF00052B101FA02F3C2F1200120FA01F10CFA1C
:100C000002FC41EA030E94404FEA1C48210CBEFB53
:100C1000F8F61FFA8CF708FB16E341EA034306FBDC
:100C200007F199420AD91CEB030306F1FF3080F06B
:100C30001F81994240F21C81023E63445B1AA4B2B8
:100C4000B3FBF8F008FB103344EA034400FB07F75A
:100C5000A7420AD91CEB040400F1FF3380F00A819B
:100C6000A74240F207816444023840EA0640E41B90
:100C700000261DB1D4400023C5E900433146BDE83C
:100C8000F0878B4209D9002D00F0EF800026C5E9DE
:100C9000000130463146BDE8F087B3FA83F6002EF6
:100CA0004AD18B4202D3824200F2F980841A61EB6E
:100CB000030301209E46002DE0D0C5E9004EDDE78C
:100CC00002B9FFDEB2FA82F2002A40F09280A1EB74
:100CD0000C014FEA1C471FFA8CFE0126200CB1FBC9
:100CE000F7F307FB131140EA01410EFB03F08842C2
:100CF00008D91CEB010103F1FF3802D2884200F24F
:100D0000CB804346091AA4B2B1FBF7F007FB1011E0
:100D100044EA01440EFB00FEA64508D91CEB04047E
:100D200000F1FF3102D2A64500F2BB800846A4EBD9
:100D30000E0440EA03409CE7C6F12007B34022FAC4
:100D400007FC4CEA030C20FA07F401FA06F31C43F3
:100D5000F9404FEA1C4900FA06F3B1FBF9F8200C00
:100D60001FFA8CFE09FB181140EA014108FB0EF046
:100D7000884202FA06F20BD91CEB010108F1FF3A96
:100D800080F08880884240F28580A8F102086144A2
:100D9000091AA4B2B1FBF9F009FB101144EA0141B0
:100DA00000FB0EFE8E4508D91CEB010100F1FF345B
:100DB0006CD28E456AD90238614440EA0840A0FBF3
:100DC0000294A1EB0E01A142C846A64656D353D0C9
:100DD0005DB1B3EB080261EB0E0101FA07F722FAED
:100DE00006F3F1401F43C5E9007100263146BDE816
:100DF000F087C2F12003D8400CFA02FC21FA03F379
:100E0000914001434FEA1C471FFA8CFEB3FBF7F0F9
:100E100007FB10360B0C43EA064300FB0EF69E421E
:100E200004FA02F408D91CEB030300F1FF382FD2B7
:100E30009E422DD9023863449B1B89B2B3FBF7F65F
:100E400007FB163341EA034106FB0EF38B4208D938
:100E50001CEB010106F1FF3816D28B4214D9023E79
:100E60006144C91A46EA004638E72E46284605E797
:100E70000646E3E61846F8E64B45A9D2B9EB020868
:100E800064EB0C0E0138A3E74646EAE7204694E7F8
:100E90004046D1E7D0467BE7023B614432E730462B
:100EA00009E76444023842E7704700BFB0B58CB030
:100EB00000AFF860B9607A60AD4B07F118041D46C9
:100EC0000FCD0FC42B68237007F1290300221A806D
:100ED0009A70FB68BA681A60FB687A685A600022E8
:100EE0007F21F86800F0A6F903461A46A14B1A7054
:100EF000A04B1B78002B07D007F118039E4A07CAA6
:100F000003C31A8000238BE1002107F117031A465F
:100F1000F86800F0AFF903461A46964B1A70954BE5
:100F20001B78002B07D007F11803944A07CA03C3A4
:100F30001A80002374E1FB7D1A4607F12C039049C7
:100F4000184603F0DDFE07F12C0207F118031146E5
:100F5000184603F0F5FE3B7E203BDBB287F82430D9
:100F60007B7E203BDBB287F825300D2387F82630C7
:100F70000A2387F82730002387F828300D233B7693
:100F80000A237B764923BB76FB685C6807F118036C
:100F90001846FFF71DF903469AB207F118014FF002
:100FA000FF33204602F09BFE00227F21F86800F00C
:100FB00041F903461A466F4B1A706E4B1B78002B93
:100FC00007D007F118036F4A07CA03C31A8000232A
:100FD00026E1F1220621F86800F02CF903461A46B2
:100FE000644B1A70634B1B78002B0AD007F118036F
:100FF000654A07CA03C31A800233120C1A70002311
:101000000EE10A2000F060FF01220621F86800F0DE
:1010100011F903461A46574B1A70564B1B78002B92
:101020000AD007F11803594A07CA03C31A800233CA
:10103000120C1A700023F3E00A2000F045FF3F2253
:101040000721F86800F0F6F803461A46494B1A7073
:10105000484B1B78002B0AD007F118034C4A07CAEB
:1010600003C31A800233120C1A700023D8E00A203E
:1010700000F02AFF00220721F86800F0DBF80346A1
:101080001A463C4B1A703B4B1B78002B0AD007F1D9
:101090001803404A07CA03C31A800233120C1A709D
:1010A0000023BDE001221021F86800F0C3F80346D8
:1010B0001A46304B1A7020227F21F86800F0BAF8E7
:1010C00003461A462B4B1A702A4B1B78002B07D06D
:1010D00007F11803304A07CA03C31A8000239FE0B0
:1010E00007220021F86800F0A5F803461A46214BB4
:1010F0001A70204B1B78002B07D007F11803274AE2
:1011000007CA03C31A8000238AE033220121F8684A
:1011100000F090F803461A46164B1A70154B1B78D0
:10112000002B07D007F118031D4A07CA03C31A8012
:10113000002375E007221121F86800F07BF80346D0
:101140001A460C4B1A7000221021F86800F072F851
:1011500003461A46074B1A70064B1B78002B23D008
:1011600007F118030F4A07CA03C31A80002357E088
:10117000B8720008F80100201872000824720008F4
:101180003072000834720008407200084C72000887
:101190005872000864720008707200087C720008BF
:1011A000887200089472000831221421F86800F057
:1011B00041F803461A461C4B1A701B4B1B78002B38
:1011C0000AD007F11803194A07CA03C31A80023369
:1011D000120C1A70002323E000225321F86800F05B
:1011E00029F800227F21F86800F024F803461A4607
:1011F0000D4B1A700C4B1B78002B0AD007F118030B
:101200000B4A07CA03C31A800233120C1A70002358
:1012100006E0642000F058FEF86800F019F9002399
:1012200018463037BD46B0BDF8010020A072000856
:10123000AC72000880B588B004AF78600B46FB70D4
:101240001346BB70BB78FB737B681868D02399B2D8
:10125000FB789AB24FF0FF3302930123019307F119
:101260000F030093012301F019FA034618461037C3
:10127000BD4680BD80B588B004AFF8600B467A608B
:10128000FB72FB681868D02399B2FB7A9AB24FF0D0
:10129000FF330293012301937B680093012301F044
:1012A000F7FA03461A46044B1A70034B1B7818468C
:1012B0001037BD4680BD00BFF801002080B588B062
:1012C00000AF78600023BB8307F1140300221A608B
:1012D0009A8007F11C031A462E217868FFF7CAFF8F
:1012E00003461A46584B1A7007F11C0301331A467D
:1012F0002D217868FFF7BEFF03461A46524B1A703D
:101300007B7F1B021AB23B7F1BB213431BB2BB8213
:1013100007F11C031A4630217868FFF7ABFF03463C
:101320001A46494B1A7007F11C0301331A462F2144
:101330007868FFF79FFF03461A46434B1A707B7F7E
:101340001B021AB23B7F1BB213431BB2FB8207F195
:101350001C031A4632217868FFF78CFF03461A46B1
:10136000394B1A7007F11C0301331A463121786892
:10137000FFF780FF03461A46334B1A707B7F1B0230
:101380001AB23B7F1BB213431BB23B83B7F9143035
:1013900003F40023002B07D0B7F914306FEA0333AE
:1013A0006FEA1333BB6002E0B7F91430BB60B7F9E2
:1013B000163003F40023002B07D0B7F916306FEA7C
:1013C00003336FEA1333FB6002E0B7F91630FB60BA
:1013D000B7F9183003F40023002B07D0B7F9183001
:1013E0006FEA03336FEA13333B6102E0B7F9183059
:1013F0003B61BB6807EE903AF8EEE77A9FED137A0F
:1014000067EE877A7B68C3ED027AFB6807EE903A55
:10141000F8EEE77A9FED0D7A67EE877A7B68C3ED89
:10142000037A3B6907EE903AF8EEE77A9FED077A88
:1014300067EE877A7B68C3ED047A034B1B78184606
:101440002037BD4680BD00BFF8010020C3F51C3A1F
:1014500080B588B000AF786000233B8307F10C03B0
:1014600000221A605A609A600023FB7755E007F16A
:1014700018031A4634217868FFF7FCFE07F11803B9
:1014800001331A4633217868FFF7F4FE7B7E1B0296
:101490001AB23B7E1BB21343BB83B7F91C20FB6817
:1014A0001344FB6007F118031A4636217868FFF7EA
:1014B000E1FE07F1180301331A4635217868FFF77A
:1014C000D9FE7B7E1A023B7E19463B690B441343CF
:1014D0003B6107F118031A4638217868FFF7CAFE06
:1014E00007F1180301331A4637217868FFF7C2FE67
:1014F00003461A46154B1A707B7E1A023B7E19462C
:101500007B690B4413437B61642000F0DDFC97F999
:101510001F30DBB20133DBB2FB7797F91F301F2B93
:10152000A5DDFB685B111AB2094B1A803B695B11A0
:101530001AB2074B5A807B695B111AB2044B9A802E
:10154000024B1B7818462037BD4680BDF8010020AD
:10155000FC01002080B58AB000AF78600023BB8416
:1015600007F11C0300221A609A8007F124031A462F
:1015700036217868FFF77EFE03461A466B4B1A70D9
:1015800007F1240301331A4635217868FFF772FE0C
:1015900003461A46654B1A7097F825301B021AB29B
:1015A00097F8243099B2624BB3F902309BB2CB1A50
:1015B0009BB21BB213431BB2FB83B7F91E309AB226
:1015C0005C4BB3F902309BB2D31A9BB21BB2FB82C5
:1015D000B7F91E20574B5A8007F124031A463821C9
:1015E0007868FFF747FE03461A46504B1A7007F11A
:1015F000240301331A4637217868FFF73BFE034680
:101600001A464A4B1A7097F825301B021AB297F8FF
:10161000243099B2464BB3F904309BB2CB1A9BB23B
:101620001BB213431BB23B84B7F920309AB2414B33
:10163000B3F904309BB2D31A9BB21BB23B83B7F908
:1016400020203C4B9A8007F124031A463421786805
:10165000FFF710FE03461A46344B1A7007F12403B5
:1016600001331A4633217868FFF704FE03461A4611
:101670002E4B1A7097F825301B021AB297F82430B7
:101680001BB21343FB8497F825301B021AB297F85C
:10169000243099B2264BB3F900309BB2CB1A9BB2DF
:1016A0001BB213431BB2BB83B7F91C309AB2214B58
:1016B000B3F900309BB2D31A9BB21BB2BB82B7F90D
:1016C0001C201C4B1A80B7F91C30BB60B7F91E30C8
:1016D000FB60B7F920303B61BB6807EE903AF8EE4B
:1016E000E77A9FED157A67EE877A7B68C3ED057A16
:1016F000FB6807EE903AF8EEE77A9FED0F7A67EE17
:10170000877A7B68C3ED067A3B6907EE903AF8EE7C
:10171000E77A9FED097A67EE877A7B68C3ED077AEF
:10172000024B1B7818462837BD4680BDF8010020C3
:10173000FC010020040200202D237A3C80B590B0EB
:1017400000AF00F04FFB00F085F800F039F900F031
:10175000DFF800F00BF9394A39493A48FFF7A6FBA0
:10176000034687F83F303B463C220021184602F0F2
:1017700055FE3448FFF7A2FD3248FFF7EBFE314B30
:101780009B681846FEF7E0FE02460B4638462E4997
:1017900003F0B6FA2B4BDB681846FEF7D5FE02467F
:1017A0000B46394601F10A00274903F0A9FA254BF7
:1017B0001B691846FEF7C8FE02460B46394601F182
:1017C0001400214903F09CFA1E4B5B691846FEF792
:1017D000BBFE02460B46394601F11E001B4903F0D1
:1017E0008FFA184B9B691846FEF7AEFE02460B4671
:1017F000394601F12800154903F082FA114BDB69E3
:101800001846FEF7A1FE02460B46394601F13200AA
:101810000E4903F075FA39464FF0FF333C22074872
:1018200002F05DFA4FF0FF3302220949034802F04B
:1018300056FA642000F048FB95E700BF84020020C0
:10184000300200200C020020CC720008D472000884
:10185000E072000880B594B000AF07F12003302299
:101860000021184602F0DAFD07F10C0300221A608D
:101870005A609A60DA601A610023BB60224B1B6CCD
:10188000214A43F0805313641F4B1B6C03F08053B9
:10189000BB60BB6800237B601C4B1B681B4A43F486
:1018A00080431360194B1B6803F480437B607B68A3
:1018B00002233B620123FB6210233B630023BB63D3
:1018C00007F12003184601F065FD0346002B01D007
:1018D00000F09EF80F23FB6000233B6100237B6137
:1018E0000023BB610023FB6107F10C0300211846B4
:1018F00001F0C8FF0346002B01D000F089F800BFBB
:101900005037BD4680BD00BF003802400070004027
:1019100080B500AF124B134A1A60114B124A5A603D
:101920000F4B00229A600E4B0022DA600C4B4FF4F2
:1019300080421A610A4B00225A61094B00229A61C7
:10194000074B0022DA61064B00221A62044800F0BD
:1019500061FD0346002B01D000F05AF800BF80BDA6
:101960003002002000540040A086010080B500AF86
:10197000114B124A1A60104B4FF4E1325A600E4B71
:1019800000229A600C4B0022DA600B4B00221A6195
:10199000094B0C225A61084B00229A61064B002227
:1019A000DA61054802F04EF90346002B01D000F041
:1019B0002FF800BF80BD00BF840200200048004017
:1019C00080B483B000AF00237B60104B1B6B0F4AC9
:1019D00043F0040313630D4B1B6B03F004037B60A4
:1019E0007B6800233B60094B1B6B084A43F00203F2
:1019F0001363064B1B6B03F002033B603B6800BFA5
:101A00000C37BD465DF8047B704700BF00380240CC
:101A100080B400AF72B600BFFEE7000080B483B0B0
:101A200000AF00237B60104B5B6C0F4A43F4804394
:101A300053640D4B5B6C03F480437B607B68002335
:101A40003B60094B1B6C084A43F080531364064B00
:101A50001B6C03F080533B603B6800BF0C37BD46F6
:101A60005DF8047B704700BF0038024080B58AB043
:101A700000AF786007F1140300221A605A609A6080
:101A8000DA601A617B681B68194A93422CD10023E3
:101A90003B61184B1B6B174A43F002031363154B52
:101AA0001B6B03F002033B613B694FF440737B61A6
:101AB0001223BB610023FB6103233B6204237B628F
:101AC00007F1140319460C4800F008FB0023FB60E3
:101AD000084B1B6C074A43F400131364054B1B6C43
:101AE00003F40013FB60FB6800BF2837BD4680BDD0
:101AF00000540040003802400004024080B58AB023
:101B000000AF786007F1140300221A605A609A60EF
:101B1000DA601A617B681B68194A93422CD1002352
:101B20003B61184B1B6C174A43F480231364154B1D
:101B30001B6C03F480233B613B690023FB60114B6A
:101B40001B6B104A43F0040313630E4B1B6B03F033
:101B50000403FB60FB684FF440637B610223BB61BD
:101B60000023FB6103233B6207237B6207F114031D
:101B70001946054800F0B2FA00BF2837BD4680BDBF
:101B800000480040003802400008024080B400AF26
:101B9000FEE780B400AFFEE780B400AFFEE780B49C
:101BA00000AFFEE780B400AFFEE780B400AF00BF37
:101BB000BD465DF8047B704780B400AF00BFBD46F2
:101BC0005DF8047B704780B400AF00BFBD465DF890
:101BD000047B704780B500AF00F056F900BF80BDB0
:101BE00080B400AF01231846BD465DF8047B704702
:101BF00080B582B000AF7860396002F0E5FB034643
:101C000016221A604FF0FF3318460837BD4680BDD4
:101C100080B582B000AF78604FF0FF317868FFF791
:101C2000E7FFFEE780B586B000AFF860B9607A6084
:101C300000237B610AE0AFF300800146BB685A1CB9
:101C4000BA60CAB21A707B6901337B617A697B68BA
:101C50009A42F0DB7B6818461837BD4680BD80B5D8
:101C600086B000AFF860B9607A6000237B6109E05C
:101C7000BB685A1CBA601B781846AFF300807B69BA
:101C800001337B617A697B689A42F1DB7B68184695
:101C90001837BD4680BD80B483B000AF78604FF088
:101CA000FF3318460C37BD465DF8047B704780B49F
:101CB00083B000AF786039603B684FF400525A60DF
:101CC000002318460C37BD465DF8047B704780B48E
:101CD00083B000AF7860012318460C37BD465DF82D
:101CE000047B704780B485B000AFF860B9607A605B
:101CF000002318461437BD465DF8047B704700008A
:101D000080B586B000AF7860144A154BD31A7B615A
:101D10007B693B61134B1B68002B02D1114B124AAC
:101D20001A60104B1A687B6813443A699A4207D2CA
:101D300002F04AFB03460C221A604FF0FF3309E021
:101D4000084B1B68FB60074B1A687B681344054A05
:101D50001360FB6818461837BD4680BD000002209E
:101D600000040000C8020020E002002080B400AFA0
:101D7000064BD3F88830054A43F47003C2F8883024
:101D800000BFBD465DF8047B704700BF00ED00E07A
:101D9000DFF834D00D480E490E4A002302E0D45833
:101DA000C4500433C4188C42F9D30B4A0B4C0023A3
:101DB00001E013600432A242FBD3FFF7D7FF02F029
:101DC00009FBFFF7BBFC7047000002200000002069
:101DD000DC010020E4760008DC010020E0020020A5
:101DE000FEE7000080B500AF0E4B1B680D4A43F4C0
:101DF000007313600B4B1B680A4A43F48063136043
:101E0000084B1B68074A43F480731360032000F0FB
:101E100031F90F2000F008F8FFF700FE0023184604
:101E200080BD00BF003C024080B582B000AF78604A
:101E3000124B1A68124B1B7819464FF47A73B3FB96
:101E4000F1F3B2FBF3F3184600F03BF90346002B25
:101E500001D001230EE07B680F2B0AD8002279689D
:101E60004FF0FF3000F011F9064A7B681360002341
:101E700000E0012318460837BD4680BD0000002061
:101E8000080000200400002080B400AF064B1B783F
:101E90001A46064B1B681344044A136000BFBD4634
:101EA0005DF8047B704700BF08000020CC020020D2
:101EB00080B400AF034B1B681846BD465DF8047B39
:101EC000704700BFCC02002080B584B000AF7860BE
:101ED000FFF7EEFFB8607B68FB60FB68B3F1FF3F84
:101EE00005D00A4B1B781A46FB681344FB6000BF01
:101EF000FFF7DEFF0246BB68D31AFA689A42F7D8AA
:101F000000BF00BF1037BD4680BD00BF08000020E5
:101F100080B485B000AF78607B6803F00703FB6096
:101F20000C4BDB68BB60BA684FF6FF031340BB6025
:101F3000FB681A02BB68134343F0BF6343F40033EA
:101F4000BB60044ABB68D36000BF1437BD465DF870
:101F5000047B704700ED00E080B400AF044BDB6809
:101F60001B0A03F007031846BD465DF8047B704763
:101F700000ED00E080B483B000AF03463960FB7130
:101F800097F90730002B0ADB3B68DAB20C4997F966
:101F900007301201D2B20B4483F800230AE03B68F9
:101FA000DAB20849FB7903F00F03043B1201D2B205
:101FB0000B441A7600BF0C37BD465DF8047B7047B2
:101FC00000E100E000ED00E080B489B000AFF8600F
:101FD000B9607A60FB6803F00703FB61FB69C3F13A
:101FE0000703042B28BF0423BB61FB690433062BC2
:101FF00002D9FB69033B00E000237B614FF0FF3215
:10200000BB6902FA03F3DA43BB681A407B699A4062
:102010004FF0FF317B6901FA03F3D9437B680B4032
:10202000134318462437BD465DF8047B7047000013
:1020300080B582B000AF78607B68013BB3F1807FF0
:1020400001D301230FE00A4A7B68013B53600F2153
:102050004FF0FF30FFF78EFF054B00229A60044BD4
:1020600007221A60002318460837BD4680BD00BF0E
:1020700010E000E080B582B000AF78607868FFF7CC
:1020800047FF00BF0837BD4680BD80B586B000AFB2
:102090000346B9607A60FB7300237B61FFF75CFF46
:1020A00078617A68B9687869FFF78EFF024697F918
:1020B0000F3011461846FFF75DFF00BF1837BD46C9
:1020C00080BD80B582B000AF78607868FFF7B0FF60
:1020D000034618460837BD4680BD000080B489B06D
:1020E00000AF7860396000237B6100233B610023EF
:1020F000BB610023FB616BE10122FB6902FA03F380
:102100007B613B681B687A6913403B613A697B6974
:102110009A4240F05A813B685B6803F00303012B4D
:1021200005D03B685B6803F00303022B30D17B686A
:102130009B68BB61FB695B00032202FA03F3DB438C
:10214000BA691340BB613B68DA68FB695B0002FA5D
:1021500003F3BA691343BB617B68BA699A607B6811
:102160005B68BB610122FB6902FA03F3DB43BA69D6
:102170001340BB613B685B681B0903F00102FB690C
:1021800002FA03F3BA691343BB617B68BA695A6008
:102190003B685B6803F00303032B17D07B68DB68A5
:1021A000BB61FB695B00032202FA03F3DB43BA69FC
:1021B0001340BB613B689A68FB695B0002FA03F35A
:1021C000BA691343BB617B68BA69DA603B685B68D4
:1021D00003F00303022B23D1FB69DA087B68083282
:1021E00053F82230BB61FB6903F007039B000F2209
:1021F00002FA03F3DB43BA691340BB613B681A6917
:10220000FB6903F007039B0002FA03F3BA69134367
:10221000BB61FB69DA087B680832B96943F82210B0
:102220007B681B68BB61FB695B00032202FA03F356
:10223000DB43BA691340BB613B685B6803F0030290
:10224000FB695B0002FA03F3BA691343BB617B6865
:10225000BA691A603B685B6803F44033002B00F0F6
:10226000B4800023FB60604B5B6C5F4A43F48043A7
:1022700053645D4B5B6C03F48043FB60FB685B4A1B
:10228000FB699B08023352F82330BB61FB6903F002
:1022900003039B000F2202FA03F3DB43BA691340E6
:1022A000BB617B68524A93422BD07B68514A934270
:1022B00025D07B68504A93421FD07B684F4A934297
:1022C00019D07B684E4A934213D07B684D4A9342A3
:1022D0000DD07B684C4A934207D07B684B4A9342AF
:1022E00001D107230EE008230CE006230AE00523B2
:1022F00008E0042306E0032304E0022302E00123B4
:1023000000E00023FA6902F0030292009340BA69E8
:102310001343BB613549FB699B080233BA6941F835
:1023200023203B4B9B68BB613B69DB43BA6913408D
:10233000BB613B685B6803F48013002B03D0BA6970
:102340003B691343BB61324ABB699360304BDB6826
:10235000BB613B69DB43BA691340BB613B685B68A7
:1023600003F40013002B03D0BA693B691343BB612C
:10237000274ABB69D360264B5B68BB613B69DB4383
:10238000BA691340BB613B685B6803F40033002B00
:1023900003D0BA693B691343BB611D4ABB695360F3
:1023A0001B4B1B68BB613B69DB43BA691340BB61D4
:1023B0003B685B6803F48033002B03D0BA693B6948
:1023C0001343BB61124ABB691360FB690133FB61B4
:1023D000FB690F2B7FF690AE00BF00BF2437BD46D0
:1023E0005DF8047B704700BF0038024000380140B0
:1023F000000002400004024000080240000C0240BD
:10240000001002400014024000180240001C02406C
:10241000003C014080B584B000AF78607B68002B41
:1024200001D101232BE17B6893F83D30DBB2002B17
:1024300006D17B68002283F83C207868FFF716FB02
:102440007B68242283F83D207B681B681A687B68C0
:102450001B6822F001021A607B681B681A687B689F
:102460001B6842F400421A607B681B681A687B682C
:102470001B6822F400421A6001F0BCFBF8607B6824
:102480005B68814A934207D8FB68804A934294BFB5
:1024900001230023DBB206E0FB687D4A934294BF30
:1024A00001230023DBB2002B01D00123E7E0FB680E
:1024B000784AA2FB03239B0CBB607B681B685B68AC
:1024C00023F03F017B681B68BA680A435A607B6847
:1024D0001B681B6A23F03F017B685B686A4A934272
:1024E00002D8BB68013309E0BB684FF4967202FB67
:1024F00003F3694AA2FB03239B0901337A6812683C
:102500000B4313627B681B68DB6923F44F4222F0A4
:10251000FF027B685B685C498B4219D8FB68591ED7
:102520007B685B685B00B1FBF3F3591C40F6FC73FE
:102530000B40002B0AD0FB68591E7B685B685B0070
:10254000B1FBF3F30133C3F30B0351E004234FE07A
:102550007B689B68002B11D1FB68581E7B6859680B
:102560000B465B000B44B0FBF3F30133C3F30B03E7
:10257000002B0CBF01230023DBB212E0FB68581EC6
:102580007B6859680B469B000B4499000B44B0FBD9
:10259000F3F30133C3F30B03002B0CBF0123002320
:1025A000DBB2002B01D0012322E07B689B68002B6B
:1025B0000ED1FB68581E7B6859680B465B000B44C4
:1025C000B0FBF3F30133C3F30B0343F400430FE019
:1025D000FB68581E7B6859680B469B000B449900AA
:1025E0000B44B0FBF3F30133C3F30B0343F4404359
:1025F000796809681343CB617B681B681B6823F00B
:10260000C0017B68DA697B681B6A1A437B681B68B8
:102610000A431A607B681B689B6823F4034323F01A
:10262000FF037A6811697A68D26811437A68126880
:102630000B4393607B681B68DB6823F0FF017B68BA
:102640005A697B689B691A437B681B680A43DA6096
:102650007B681B681A687B681B6842F001021A607D
:102660007B6800221A647B68202283F83D207B6807
:1026700000221A637B68002283F83E20002318465C
:102680001037BD4680BD00BFA08601007F841E00BC
:10269000FF083D0083DE1B43D34D621080B588B038
:1026A00002AFF860084611461A4603467B810B4686
:1026B0003B811346FB80FFF7FBFB7861FB6893F8D7
:1026C0003D30DBB2202B40F0D9807B690093192389
:1026D00001226D49F86800F07FFC0346002B01D011
:1026E0000223CCE0FB6893F83C30012B01D102239C
:1026F000C5E0FB68012283F83C20FB681B681B686F
:1027000003F00103012B07D0FB681B681A68FB6804
:102710001B6842F001021A60FB681B681A68FB68BC
:102720001B6822F400621A60FB68212283F83D20B6
:10273000FB68402283F83E20FB6800221A64FB6895
:102740003A6A5A62FB68BA8C5A85FB685B8D9AB20A
:10275000FB681A85FB684D4ADA62F8883A897989FC
:102760007B690193BB6A00930346F86800F0B6FAF0
:102770000346002B52D0012381E07A69B96AF868D8
:1027800000F000FD0346002B0DD0FB681B6C042BF2
:1027900007D1FB681B681A68FB681B6842F400726B
:1027A0001A6001236BE0FB685B6A1A78FB681B68A0
:1027B0001A61FB685B6A5A1CFB685A62FB681B8DD6
:1027C000013B9AB2FB681A85FB685B8D9BB2013BAB
:1027D0009AB2FB685A85FB681B685B6903F00403C7
:1027E000042B1BD1FB681B8D002B17D0FB685B6A89
:1027F0001A78FB681B681A61FB685B6A5A1CFB68E5
:102800005A62FB681B8D013B9AB2FB681A85FB6814
:102810005B8D9BB2013B9AB2FB685A85FB681B8DAE
:10282000002BAAD17A69B96AF86800F0ECFC03467B
:10283000002B0DD0FB681B6C042B07D1FB681B68B9
:102840001A68FB681B6842F400721A60012316E0E4
:10285000FB681B681A68FB681B6842F400721A6008
:10286000FB68202283F83D20FB68002283F83E208D
:10287000FB68002283F83C20002300E00223184676
:102880001837BD4680BD00BF020010000000FFFFEA
:1028900080B58CB002AFF860084611461A46034670
:1028A0007B810B463B811346FB80FFF701FB78627F
:1028B000FB6893F83D30DBB2202B40F008827B6A46
:1028C0000093192301227B49F86800F085FB034639
:1028D000002B01D00223FBE1FB6893F83C30012B75
:1028E00001D10223F4E1FB68012283F83C20FB685C
:1028F0001B681B6803F00103012B07D0FB681B68F2
:102900001A68FB681B6842F001021A60FB681B68CA
:102910001A68FB681B6822F400621A60FB682222B6
:1029200083F83D20FB68402283F83E20FB680022AC
:102930001A64FB683A6B5A62FB68BA8E5A85FB6868
:102940005B8D9AB2FB681A85FB685B4ADA62F8888D
:102950003A8979897B6A0193BB6B00930346F868D7
:1029600000F052FA0346002B01D00123B0E1FB68CE
:102970001B8D002B13D100233B62FB681B685B6936
:102980003B62FB681B689B693B623B6AFB681B6898
:102990001A68FB681B6842F400721A6084E1FB68E5
:1029A0001B8D012B1BD1FB681B681A68FB681B6819
:1029B00022F480621A600023FB61FB681B685B697C
:1029C000FB61FB681B689B69FB61FB69FB681B681B
:1029D0001A68FB681B6842F400721A6064E1FB68C5
:1029E0001B8D022B1BD1FB681B681A68FB681B68D8
:1029F00022F480621A60FB681B681A68FB681B6817
:102A000042F400621A600023BB61FB681B685B69CB
:102A1000BB61FB681B689B69BB61BB6944E1002328
:102A20007B61FB681B685B697B61FB681B689B695A
:102A30007B617B6938E1FB681B8D032B00F2F18021
:102A4000FB681B8D012B23D17A6AB96BF86800F003
:102A50001BFC0346002B01D0012339E1FB681B68F6
:102A60001A69FB685B6AD2B21A70FB685B6A5A1C0F
:102A7000FB685A62FB681B8D013B9AB2FB681A85A2
:102A8000FB685B8D9BB2013B9AB2FB685A850BE1F8
:102A9000FB681B8D022B4ED17B6A0093BB6B00221F
:102AA0000649F86800F098FA0346002B08D0012385
:102AB0000EE100BF020010000000FFFF0400010053
:102AC000FB681B681A68FB681B6842F400721A6096
:102AD000FB681B681A69FB685B6AD2B21A70FB68F4
:102AE0005B6A5A1CFB685A62FB681B8D013B9AB2F9
:102AF000FB681A85FB685B8D9BB2013B9AB2FB6851
:102B00005A85FB681B681A69FB685B6AD2B21A7047
:102B1000FB685B6A5A1CFB685A62FB681B8D013BB1
:102B20009AB2FB681A85FB685B8D9BB2013B9AB237
:102B3000FB685A85B8E07B6A0093BB6B002266494C
:102B4000F86800F049FA0346002B01D00123BFE0EA
:102B5000FB681B681A68FB681B6822F480621A60B5
:102B6000FB681B681A69FB685B6AD2B21A70FB6863
:102B70005B6A5A1CFB685A62FB681B8D013B9AB268
:102B8000FB681A85FB685B8D9BB2013B9AB2FB68C0
:102B90005A857B6A0093BB6B00224F49F86800F0AE
:102BA0001BFA0346002B01D0012391E0FB681B6850
:102BB0001A68FB681B6842F400721A60FB681B68A5
:102BC0001A69FB685B6AD2B21A70FB685B6A5A1CAE
:102BD000FB685A62FB681B8D013B9AB2FB681A8541
:102BE000FB685B8D9BB2013B9AB2FB685A85FB6820
:102BF0001B681A69FB685B6AD2B21A70FB685B6A71
:102C00005A1CFB685A62FB681B8D013B9AB2FB6839
:102C10001A85FB685B8D9BB2013B9AB2FB685A85B3
:102C200042E07A6AB96BF86800F02EFB0346002B8D
:102C300001D001234CE0FB681B681A69FB685B6AE2
:102C4000D2B21A70FB685B6A5A1CFB685A62FB6856
:102C50001B8D013B9AB2FB681A85FB685B8D9BB2AA
:102C6000013B9AB2FB685A85FB681B685B6903F0FD
:102C70000403042B18D1FB681B681A69FB685B6AA4
:102C8000D2B21A70FB685B6A5A1CFB685A62FB6816
:102C90001B8D013B9AB2FB681A85FB685B8D9BB26A
:102CA000013B9AB2FB685A85FB681B8D002B7FF4B1
:102CB000C2AEFB68202283F83D20FB68002283F827
:102CC0003E20FB68002283F83C20002300E0022322
:102CD00018462837BD4680BD0400010080B588B085
:102CE00002AFF860084611461A4603467B810B4640
:102CF0003B811346FB80FB681B681A68FB681B68F6
:102D000042F480721A607B6A00933B6A00224FF0A3
:102D10000111F86800F060F90346002B0DD0FB6844
:102D20001B681B6803F48073B3F5807F03D1FB68D5
:102D30004FF400721A6403235FE07B89DBB21A460A
:102D4000FB681B6802F0FE021A617B6A3A6A2D4931
:102D5000F86800F098F90346002B01D001234CE0FD
:102D600000237B61FB681B685B697B61FB681B68F8
:102D70009B697B617B697A6A396AF86800F002FABC
:102D80000346002B0DD0FB681B6C042B07D1FB689E
:102D90001B681A68FB681B6842F400721A60012302
:102DA0002BE0FB88012B05D13B89DAB2FB681B685D
:102DB0001A6121E03B891B0A9BB2DAB2FB681B68EF
:102DC0001A617A6A396AF86800F0DCF90346002B68
:102DD0000DD0FB681B6C042B07D1FB681B681A68BD
:102DE000FB681B6842F400721A60012305E03B890E
:102DF000DAB2FB681B681A61002318461837BD4613
:102E000080BD00BF0200010080B588B002AFF8604D
:102E1000084611461A4603467B810B463B81134602
:102E2000FB80FB681B681A68FB681B6842F48062C1
:102E30001A60FB681B681A68FB681B6842F48072A2
:102E40001A607B6A00933B6A00224FF00111F86818
:102E500000F0C2F80346002B0DD0FB681B681B680E
:102E600003F48073B3F5807F03D1FB684FF40072E5
:102E70001A640323AAE07B89DBB21A46FB681B684D
:102E800002F0FE021A617B6A3A6A5249F86800F061
:102E9000FAF80346002B01D0012397E000237B6161
:102EA000FB681B685B697B61FB681B689B697B61D6
:102EB0007B697A6A396AF86800F064F90346002B86
:102EC0000DD0FB681B6C042B07D1FB681B681A68CC
:102ED000FB681B6842F400721A60012376E0FB88ED
:102EE000012B05D13B89DAB2FB681B681A6121E02E
:102EF0003B891B0A9BB2DAB2FB681B681A617A6ACB
:102F0000396AF86800F03EF90346002B0DD0FB68E3
:102F10001B6C042B07D1FB681B681A68FB681B68D5
:102F200042F400721A60012350E03B89DAB2FB6878
:102F30001B681A617A6A396AF86800F023F9034657
:102F4000002B0DD0FB681B6C042B07D1FB681B68A2
:102F50001A68FB681B6842F400721A60012335E0AE
:102F6000FB681B681A68FB681B6842F480721A6071
:102F70007B6A00933B6A00224FF00111F86800F071
:102F80002BF80346002B0DD0FB681B681B6803F46D
:102F90008073B3F5807F03D1FB684FF400721A642D
:102FA000032313E07B89DBB243F00103DAB2FB6851
:102FB0001B681A617B6A3A6A0649F86800F063F890
:102FC0000346002B01D0012300E0002318461837E8
:102FD000BD4680BD0200010080B584B000AFF8603E
:102FE000B9603B601346FB7125E03B68B3F1FF3FDE
:102FF00021D0FEF75DFF0246BB69D31A3A689A42B8
:1030000002D33B68002B16D1FB6800221A63FB68D1
:10301000202283F83D20FB68002283F83E20FB68D5
:103020001B6C43F02002FB681A64FB68002283F8E3
:103030003C20012323E0BB681B0CDBB2012B0DD12C
:10304000FB681B685B69DA43BB6813409BB2002BCB
:103050000CBF01230023DBB21A460CE0FB681B689F
:103060009B69DA43BB6813409BB2002B0CBF012362
:103070000023DBB21A46FB799A42B6D000231846E9
:103080001037BD4680BD80B584B000AFF860B96030
:103090007A603B6051E0FB681B685B6903F4806306
:1030A000B3F5806F23D1FB681B681A68FB681B6847
:1030B00042F400721A60FB681B686FF480625A6108
:1030C000FB6800221A63FB68202283F83D20FB681E
:1030D000002283F83E20FB681B6C43F00402FB686F
:1030E0001A64FB68002283F83C20012346E07B68D9
:1030F000B3F1FF3F21D0FEF7DBFE02463B68D31A57
:103100007A689A4202D37B68002B16D1FB680022B2
:103110001A63FB68202283F83D20FB68002283F8B5
:103120003E20FB681B6C43F02002FB681A64FB68BE
:10313000002283F83C20012320E0BB681B0CDBB29B
:10314000012B0CD1FB681B685B69DA43BB68134039
:103150009BB2002B14BF01230023DBB20BE0FB6802
:103160001B689B69DA43BB6813409BB2002B14BFFA
:1031700001230023DBB2002B8DD10023184610372A
:10318000BD4680BD80B584B000AFF860B9607A609C
:103190002DE0F86800F0CEF80346002B01D00123A3
:1031A0002DE0BB68B3F1FF3F21D0FEF781FE024660
:1031B0007B68D31ABA689A4202D3BB68002B16D137
:1031C000FB6800221A63FB68202283F83D20FB681D
:1031D000002283F83E20FB681B6C43F02002FB6852
:1031E0001A64FB68002283F83C20012307E0FB6897
:1031F0001B685B6903F08003802BCAD1002318464B
:103200001037BD4680BD80B584B000AFF860B960AE
:103210007A602DE0F86800F08DF80346002B01D0AD
:1032200001232DE0BB68B3F1FF3F21D0FEF740FE44
:1032300002467B68D31ABA689A4202D3BB68002B55
:1032400016D1FB6800221A63FB68202283F83D2018
:10325000FB68002283F83E20FB681B6C43F02002D1
:10326000FB681A64FB68002283F83C20012307E016
:10327000FB681B685B6903F00403042BCAD10023BD
:1032800018461037BD4680BD80B584B000AFF860E9
:10329000B9607A6042E0FB681B685B6903F0100369
:1032A000102B19D1FB681B686FF010025A61FB6884
:1032B00000221A63FB68202283F83D20FB6800226D
:1032C00083F83E20FB681A6CFB681A64FB680022D6
:1032D00083F83C20012329E0FEF7EAFD02467B68E3
:1032E000D31ABA689A4202D3BB68002B16D1FB6886
:1032F00000221A63FB68202283F83D20FB6800222D
:1033000083F83E20FB681B6C43F02002FB681A64C4
:10331000FB68002283F83C20012307E0FB681B6860
:103320005B6903F04003402BB5D1002318461037EA
:10333000BD4680BD80B483B000AF78607B681B68F9
:103340005B6903F48063B3F5806F1BD17B681B68F6
:103350006FF480625A617B6800221A637B682022C6
:1033600083F83D207B68002283F83E207B681B6C3D
:1033700043F004027B681A647B68002283F83C20D7
:10338000012300E0002318460C37BD465DF8047B9E
:103390007047000080B586B000AF78607B68002B76
:1033A00001D1012367E27B681B6803F00103002B56
:1033B00075D0884B9B6803F00C03042B0CD0854B15
:1033C0009B6803F00C03082B12D1824B5B6803F45B
:1033D0008003B3F5800F0BD17E4B1B6803F40033E1
:1033E000002B5BD07B685B68002B57D1012342E246
:1033F0007B685B68B3F5803F06D1764B1B68754AE6
:1034000043F4803313601DE07B685B68B3F5A02F45
:103410000CD1704B1B686F4A43F4802313606D4BD3
:103420001B686C4A43F4803313600BE0694B1B68E4
:10343000684A23F480331360664B1B68654A23F4A3
:10344000802313607B685B68002B13D0FEF730FD90
:10345000386108E0FEF72CFD02463B69D31A642B65
:1034600001D9032307E25B4B1B6803F40033002BF5
:10347000F0D014E0FEF71CFD386108E0FEF718FDFF
:1034800002463B69D31A642B01D90323F3E1514B64
:103490001B6803F40033002BF0D100E000BF7B6811
:1034A0001B6803F00203002B63D04A4B9B6803F0B8
:1034B0000C03002B0BD0474B9B6803F00C03082B2D
:1034C0001CD1444B5B6803F48003002B16D1414BA5
:1034D0001B6803F00203002B05D07B68DB68012B1F
:1034E00001D00123C7E13B4B1B6823F0F8027B6846
:1034F0001B69DB00374913430B603AE07B68DB68EC
:10350000002B20D0344B01221A60FEF7D1FC386129
:1035100008E0FEF7CDFC02463B69D31A022B01D925
:103520000323A8E12B4B1B6803F00203002BF0D010
:10353000284B1B6823F0F8027B681B69DB002549D8
:1035400013430B6015E0244B00221A60FEF7B0FC19
:10355000386108E0FEF7ACFC02463B69D31A022B47
:1035600001D9032387E11B4B1B6803F00203002BE7
:10357000F0D17B681B6803F00803002B36D07B6812
:103580005B69002B16D0154B01221A60FEF790FCE8
:10359000386108E0FEF78CFC02463B69D31A022B27
:1035A00001D9032367E10B4B5B6F03F00203002B90
:1035B000F0D01BE0094B00221A60FEF779FC38615D
:1035C0000EE0FEF775FC02463B69D31A022B07D9C1
:1035D000032350E10038024000004742800E47427A
:1035E000884B5B6F03F00203002BEAD17B681B68FA
:1035F00003F00403002B00F097800023FB75814B40
:103600001B6C03F08053002B0FD10023BB607D4B5C
:103610001B6C7C4A43F0805313647A4B1B6C03F0A1
:103620008053BB60BB680123FB75774B1B6803F4B9
:103630008073002B18D1744B1B68734A43F480735A
:103640001360FEF735FC386108E0FEF731FC0246F6
:103650003B69D31A022B01D903230CE16A4B1B6887
:1036600003F48073002BF0D07B689B68012B06D19C
:10367000644B1B6F634A43F0010313671CE07B68D4
:103680009B68052B0CD15F4B1B6F5E4A43F0040314
:1036900013675C4B1B6F5B4A43F0010313670BE03E
:1036A000584B1B6F574A23F001031367554B1B6F91
:1036B000544A23F0040313677B689B68002B15D0E2
:1036C000FEF7F6FB38610AE0FEF7F2FB02463B69C3
:1036D000D31A41F28832934201D90323CBE0494BFC
:1036E0001B6F03F00203002BEED014E0FEF7E0FBAB
:1036F00038610AE0FEF7DCFB02463B69D31A41F26F
:103700008832934201D90323B5E03E4B1B6F03F08F
:103710000203002BEED1FB7D012B05D1394B1B6C35
:10372000384A23F0805313647B689B69002B00F0B8
:10373000A180344B9B6803F00C03082B5CD07B68A2
:103740009B69022B41D1314B00221A60FEF7B0FB7E
:10375000386108E0FEF7ACFB02463B69D31A022B46
:1037600001D9032387E0274B1B6803F00073002B6C
:10377000F0D17B68DA697B681B6A1A437B685B6AF5
:103780009B011A437B689B6A5B08013B1B041A433D
:103790007B68DB6A1B061B4913434B601B4B0122F2
:1037A0001A60FEF785FB386108E0FEF781FB0246F0
:1037B0003B69D31A022B01D903235CE0114B1B6830
:1037C00003F00073002BF0D054E0104B00221A607D
:1037D000FEF76EFB386108E0FEF76AFB02463B69C4
:1037E000D31A022B01D9032345E0064B1B6803F0D3
:1037F0000073002BF0D13DE07B689B69012B07D162
:10380000012338E000380240007000406000474269
:103810001B4B5B68FB607B689B69012B28D0FB68B6
:1038200003F480027B68DB699A4221D1FB6803F0D4
:103830003F027B681B6A9A421AD1FA6847F6C07346
:1038400013407A68526A9201934211D1FB6803F4E3
:1038500040327B689B6A5B08013B1B049A4207D19C
:10386000FB6803F070627B68DB6A1B069A4201D03A
:10387000012300E0002318461837BD4680BD00BF75
:103880000038024080B584B000AF786039607B6852
:10389000002B01D10123CCE0684B1B6803F0070328
:1038A0003A689A420CD9654B3A68D2B21A70634BA7
:1038B0001B6803F007033A689A4201D00123B8E07D
:1038C0007B681B6803F00203002B20D07B681B6819
:1038D00003F00403002B05D0594B9B68584A43F46E
:1038E000E05393607B681B6803F00803002B05D04E
:1038F000534B9B68524A43F460439360504B9B6820
:1039000023F0F0027B689B684D4913438B607B6812
:103910001B6803F00103002B44D07B685B68012B1C
:1039200007D1474B1B6803F40033002B19D1012347
:103930007FE07B685B68022B03D07B685B68032BAE
:1039400007D13F4B1B6803F00073002B09D1012303
:103950006FE03B4B1B6803F00203002B01D10123F6
:1039600067E0374B9B6823F003027B685B68344950
:1039700013438B60FEF79CFAF8600AE0FEF798FAB2
:103980000246FB68D31A41F28832934201D90323DD
:103990004FE02B4B9B6803F00C027B685B689B003D
:1039A0009A42EBD1254B1B6803F007033A689A4211
:1039B0000CD2224B3A68D2B21A70204B1B6803F02B
:1039C00007033A689A4201D0012332E07B681B6802
:1039D00003F00403002B08D0194B9B6823F4E0523A
:1039E0007B68DB68164913438B607B681B6803F0B8
:1039F0000803002B09D0124B9B6823F460427B68BC
:103A00001B69DB000E4913438B6000F021F802466E
:103A10000B4B9B681B0903F00F030A49CB5C22FA8E
:103A200003F3094A1360094B1B681846FEF7FCF9BB
:103A3000002318461037BD4680BD00BF003C024041
:103A400000380240E472000800000020040000205A
:103A50002DE9B04F90B000AF00237B630023FB63E0
:103A600000233B630023BB63594B9B6803F00C03AB
:103A7000082B0DD0082B00F2A180002B02D0042BC4
:103A800003D09BE0534BBB639BE0534BBB6398E07D
:103A90004F4B5B6803F03F037B634D4B5B6803F464
:103AA0008003002B28D04A4B5B689B0900223B62B5
:103AB0007A623B6AC3F308000021474B03FB01F223
:103AC000002300FB03F31344434AA0FB0212FA62F3
:103AD0000A46BA62FA6A1344FB627B6B0022BB613E
:103AE000FA61D7E90623D7E90A01FDF75DF8024636
:103AF0000B461346FB6353E0354B5B689B09002282
:103B00003B617A613B69C3F3080A4FF0000B5246F0
:103B10005B464FF000004FF00001590141EAD261CD
:103B2000500102460B46B2EB0A0863EB0B094FF05B
:103B300000024FF000034FEA891343EA98634FEA0B
:103B40008812B2EB080463EB09054FF000024FF056
:103B50000003EB0043EA5473E20014461D4614EBE5
:103B60000A033B6045EB0B037B604FF000024FF014
:103B70000003D7E9004529468B02214643EA9153C9
:103B800021468A02104619467B6B0022BB60FA6010
:103B9000D7E90223FDF708F802460B461346FB63FC
:103BA0000B4B5B681B0C03F0030301335B003B63AF
:103BB000FA6B3B6BB2FBF3F3BB6302E0054BBB63F9
:103BC00000BFBB6B18464037BD46BDE8B08F00BF95
:103BD000003802400024F40040787D0180B400AF3A
:103BE000034B1B681846BD465DF8047B704700BF59
:103BF0000000002080B500AFFFF7F0FF0246054B44
:103C00009B689B0A03F007030349CB5C22FA03F38A
:103C1000184680BD00380240F472000880B500AF3D
:103C2000FFF7DCFF0246054B9B685B0B03F00703C5
:103C30000349CB5C22FA03F3184680BD00380240EA
:103C4000F472000880B582B000AF78607B68002B0A
:103C500001D101233FE07B6893F83D30DBB2002BBC
:103C600006D17B68002283F83C207868FDF746FF88
:103C70007B68242283F83D207B681B68DA687B68B8
:103C80001B6822F40052DA60786800F029F97B683A
:103C90001B681A697B681B6822F490421A617B6872
:103CA0001B685A697B681B6822F02A025A617B688C
:103CB0001B68DA687B681B6842F40052DA607B6834
:103CC00000221A647B68202283F83D207B68202232
:103CD00083F83E20002318460837BD4680BD80B5D6
:103CE0008AB002AFF860B9603B601346FB800023E6
:103CF0007B61FB6893F83D30DBB2202B7CD1BB6845
:103D0000002B02D0FB88002B01D1012375E0FB685A
:103D100093F83C30012B01D102236EE0FB680122B5
:103D200083F83C20FB6800221A64FB68212283F898
:103D30003D20FEF7BDF87861FB68FA889A84FB683D
:103D4000FA88DA84FB689B68B3F5805F08D1FB686A
:103D50001B69002B04D10023FB61BB68BB6103E03E
:103D6000BB68FB610023BB61FB68002283F83C2039
:103D70002AE03B6800937B6900228021F86800F00C
:103D800040F80346002B01D0032336E0FB69002BEB
:103D90000BD1BB691B881A46FB681B68C2F308027B
:103DA0005A60BB690233BB6107E0FB691A78FB68A4
:103DB0001B685A60FB690133FB61FB68DB8C9BB2BB
:103DC000013B9AB2FB68DA84FB68DB8C9BB2002B68
:103DD000CFD13B6800937B6900224021F86800F056
:103DE00010F80346002B01D0032306E0FB682022D5
:103DF00083F83D20002300E0022318462037BD460B
:103E000080BD80B590B000AFF860B9603B601346EC
:103E1000FB7150E0BB6CB3F1FF3F4CD0BB6C002B8F
:103E200007D0FEF745F802463B68D31ABA6C9A42AF
:103E300041D2FB681B680C33BB62BB6A53E8003F8E
:103E40007B627B6A23F4D073FB63FB681B680C33D3
:103E5000FA6B7A633B63396B7A6B41E80023FB6250
:103E6000FB6A002BE5D1FB681B6814337B617B691F
:103E700053E8003F3B613B6923F00103BB63FB68F0
:103E80001B681433BA6B3A62FB61F9693A6A41E81C
:103E90000023BB61BB69002BE5D1FB68202283F8BE
:103EA0003D20FB68202283F83E20FB68002283F837
:103EB0003C2003230FE0FB681B681A68BB681340B3
:103EC000BA689A420CBF01230023DBB21A46FB7981
:103ED0009A429FD0002318464037BD4680BD00005F
:103EE0002DE9B04FC0B000AFC7F8F400D7F8F430F8
:103EF0001B681B6923F44050D7F8F430D968D7F811
:103F0000F4301A6840EA01031361D7F8F4309A6874
:103F1000D7F8F4301B691A43D7F8F4305B691A43B9
:103F2000D7F8F430DB691343C7F8F830D7F8F4302A
:103F30001B68DB6823F4164121F00C01D7F8F4303C
:103F40001A68D7F8F8300B43D360D7F8F4301B6801
:103F50005B6923F44070D7F8F4309969D7F8F430EE
:103F60001A6840EA01035361D7F8F4301A688F4B9E
:103F70009A4205D0D7F8F4301A688D4B9A4204D192
:103F8000FFF74CFEC7F8FC0003E0FFF733FEC7F86D
:103F9000FC00D7F8F430DB69B3F5004F40F00C813A
:103FA000D7F8FC300022C7F8E830C7F8EC20D7E992
:103FB0003A4522462B469118B9655B41FB65D7E926
:103FC0001623214612EB0108294643EB01094FF065
:103FD00000024FF000034FEAC90343EA58734FEA67
:103FE000C80290469946234618EB0303C7F8E03011
:103FF0002B4649EB0303C7F8E430D7F8F4305B688D
:104000000022C7F8D830C7F8DC20D7E936120B46B3
:10401000DB183B65134642EB03037B65D7E91423AA
:10402000D7E93801FCF7C0FD02460B46614BA3FB04
:1040300002235B091C01D7F8FC300022C7F8D030FE
:10404000C7F8D420D7E9348942464B469118B96461
:104050005B41FB64D7E91223414612EB010A494652
:1040600043EB010B4FF000024FF000034FEACB038C
:1040700043EA5A734FEACA0292469B4643461AEBFA
:104080000303C7F8C8304B464BEB0303C7F8CC30EB
:10409000D7F8F4305B680022C7F8C030C7F8C420F6
:1040A000D7E930120B46DB183B64134642EB03039F
:1040B0007B64D7E91023D7E93201FCF775FD02468E
:1040C0000B4611463B4BA3FB01235B09642202FB19
:1040D00003F3CB1ADB0003F13202364BA3FB0223BE
:1040E0005B095B0003F4F8731C44D7F8FC30002232
:1040F000C7F8B830C7F8BC20D7E92E8942464B46EE
:104100009118B9635B41FB63D7E90E23414651180F
:10411000396349464B417B634FF000024FF0000387
:10412000D7E90CAB5946CB00514643EA517351468F
:10413000CA0010461946034642469B18C7F8B030DD
:104140004B460A4642EB0303C7F8B430D7F8F430C5
:104150005B680022C7F8A830C7F8AC20D7E92A125C
:104160000B46DB18BB62134642EB0303FB62D7E945
:104170000A23D7E92C01FCF717FD02460B460D4B2D
:10418000A3FB02135B09642101FB03F3D31ADB00D9
:104190003233084AA2FB03235B0903F00702D7F876
:1041A000F4301B6822449A6005E100BF0010014012
:1041B000001401401F85EB51D7F8FC300022C7F8EE
:1041C000A030C7F8A420D7E9288942464B46911869
:1041D00039625B417B62D7E908234146541849465E
:1041E00043EB01054FF000024FF00003EB0043EA00
:1041F0005473E20014461D464346E318C7F898304E
:104200004B4645EB0303C7F89C30D7F8F4305B68A6
:104210000022C7F89030C7F894204FF000024FF00A
:104220000003D7E9244529468B00214643EA9173D0
:1042300021468A00D7E92601FCF7B6FC02460B4668
:10424000604BA3FB02235B091C01D7F8FC30002262
:10425000C7F88830C7F88C20D7E9228942464B46F8
:104260009118B9615B41FB61D7E9062341465118BA
:10427000396149464B417B614FF000024FF000032A
:10428000D7E904AB5946CB00514643EA5173514636
:10429000CA0010461946034642469B18C7F88030AC
:1042A0004B460A4642EB0303C7F88430D7F8F43094
:1042B0005B680022BB67FA674FF000024FF0000313
:1042C000D7E91E8949468B00414643EA917341462E
:1042D0008A00D7E92001FCF767FC02460B46394B00
:1042E000A3FB02135B09642101FB03F3D31A1B0137
:1042F0003233344AA2FB03235B0903F0F0031C446E
:10430000D7F8FC3000223B677A67D7E91C89424620
:104310004B469118B9605B41FB60D7E902234146E7
:104320005118396049464B417B604FF000024FF015
:104330000003D7E900AB5946CB00514643EA51731D
:104340005146CA0010461946034642469B18BB66B2
:104350004B460A4642EB0303FB66D7F8F4305B6832
:1043600000223B667A664FF000024FF00003D7E967
:10437000188949468B00414643EA917341468A00B9
:10438000D7E91A01FCF710FC02460B460D4BA3FBC4
:1043900002135B09642101FB03F3D31A1B013233BF
:1043A000084AA2FB03235B0903F00F02D7F8F4309D
:1043B0001B6822449A6000BF07F58077BD46BDE8C0
:1043C000B08F00BF1F85EB51014B1868704700BFCD
:1043D0000C00002070B50D4D0D4C641BA410002680
:1043E000A64209D10B4D0C4C02F00AFF641BA4102D
:1043F0000026A64205D170BD55F8043B984701360A
:10440000EEE755F8043B98470136F2E7DC76000802
:10441000DC760008DC760008E076000802440346FB
:10442000934200D1704703F8011BF9E72DE9FF47DC
:1044300055EC104B002D0E4619462B46BBBF05F11F
:1044400000431D4600232D230B700D9BDDF830A08B
:10445000914623F02008BCBF22461446B8F1460F0F
:1044600005D0B8F1450F00D10136022100E003214B
:1044700003AB019302AB009345EC104B534632461D
:1044800000F0F2FCB8F1470F074602D119F0010F16
:1044900022D0B8F1460F07EB060910D13B78302B3C
:1044A0000AD10022002320462946FCF70DFB18B94B
:1044B000C6F10106CAF80060DAF80030994400221B
:1044C000002320462946FCF7FFFA08B1CDF80C90EE
:1044D0003022039B4B4507D3039B0E9ADB1B3846C8
:1044E000136004B0BDE8F087591C03911A70F0E71F
:1044F000F7B503460029B8BF494203F8022BB4BF01
:104500002D222B22092942702ADD0DF10704A44631
:104510000A27A6460A4691FBF7F607FB1615303523
:10452000632A04F1FF340EF8015C3146F1DC3031CE
:10453000AEF1020504F8011C441C294661450AD36A
:104540000DF10902A2EB0E02654588BF002213445B
:10455000181A03B0F0BD11F8012B04F8012FEDE794
:10456000302330318370C170031DF1E72DE9F04F26
:104570002DED028B8DB00C46DDF8608016461F468F
:10458000054601F05FFAD0F800A05046FBF720FE88
:1045900000230A9323680593D8F8003094F818B0E4
:1045A000073323F0070303F10802C8F80020D3E91A
:1045B0000023C4E91223D4E9128929F000430793A8
:1045C000CDF8188008EE100A9F4BDDE906014FF088
:1045D000FF32FCF7ABFA88BBDDE906019A4B4FF0DE
:1045E000FF32FCF785FA48BB0022002340464946CB
:1045F000FCF774FA10B12D2384F84330934B9448A0
:10460000BBF1470F94BF9846804603232361059B67
:1046100023F0040222604FF00009009733460BAAF2
:104620002146284600F0D8F9013040F090804FF044
:10463000FF300DB0BDEC028BBDE8F08F42464B461B
:1046400040464946FCF772FA40B14B46002BBCBFCE
:104650002D2384F843307F487F4BD1E763680BF00C
:10466000DF0206925A1C3FD106236360059B6168F6
:1046700043F48062002303930AABCDE901B309AB95
:1046800049EC108B009322600DF123032846FFF7BD
:10469000CDFE069B0999472B804608D1C81C02DB3A
:1046A0006368994241DDABF1020B5FFA8BFBBBF112
:1046B000650F20D801395A4604F150000991FFF7DF
:1046C00017FF0A9A1318012A8146236102DC226827
:1046D000D20701D5013323619DF82330002B9CD0F4
:1046E0002D2384F8433098E7069A472ABED1002B41
:1046F000BCD10123B9E7BBF1660F18D1002963686B
:104700000BDD216113B92268D00702D501330B44B8
:104710002361A1654FF00009DEE713B92268D207D3
:1047200001D50233F4E70123F2E74FF0670B0A9B50
:10473000994205DB23682161D807EAD54B1CE7E7DE
:104740000029D4BFC1F1020201221344E0E723682B
:104750005A0507D42369424631462846B8470130F6
:104760002CD164E7BBF1650F40F2E080D4E912017F
:1047700000220023FCF7A8F9002834D0374A01238F
:1047800031462846B84701303FF451AFDDE90923EF
:104790009A4202DB2368D80710D518EE103A524629
:1047A00031462846B84701303FF441AF4FF000088A
:1047B00004F11A090A9B013B434509DC23689B0766
:1047C00000F10581E0680B9B9842B8BF184630E7BE
:1047D00001234A4631462846B84701303FF427AF07
:1047E00008F10108E6E7099B002B39DC1B4A01238D
:1047F00031462846B84701303FF419AFDDE90923B7
:10480000134302D12368D907D8D518EE103A52467F
:1048100031462846B84701303FF409AF4FF0000950
:1048200004F11A0A099B5B424B4501DC0A9B92E7A3
:104830000123524631462846B84701303FF4F7AECF
:1048400009F10109EEE700BFFFFFEF7F00730008E9
:10485000047300080C730008087300081073000844
:104860000A9AA36D9A42A8BF1A46002A914637DCDD
:104870004FF0000B29EAE97904F11A02A36D0593C0
:10488000A3EB09035B4533DCDDE909239A423BDBFB
:104890002368DA0738D40A9B059A09999A1AA3EB78
:1048A00001099145A8BF9146B9F1000F35DC4FF0E1
:1048B000000829EAE97904F11A0ADDE909239B1ABB
:1048C000A3EB090343457FF779AF012352463146F5
:1048D0002846B84701303FF4AAAE08F10108ECE7DA
:1048E0001346314642462846B8470130C0D19EE6BD
:1048F0000123314628460592B84701303FF497AE70
:10490000059A0BF1010BB9E718EE103A5246314601
:104910002846B8470130BED189E6059A4B46424445
:1049200031462846B8470130C1D180E60A9A012AAB
:1049300001DCDB0738D50123424631462846B8471B
:1049400001303FF474AE18EE103A52463146284614
:10495000B84701303FF46BAED4E9120100220023C6
:10496000FCF7B2F8D8B90A9B08F10102013B3146C5
:104970002846B84701300ED159E601235246314648
:104980002846B84701303FF452AE08F101080A9BAF
:10499000013B4345F1DC4B4604F15002DCE64FF0AD
:1049A000000804F11A0AF2E701234246DFE7012377
:1049B0004A4631462846B84701303FF438AE08F140
:1049C0000108E3680B995B1A4345F0DCFAE64FF007
:1049D000000804F11909F4E72DE9F0471646994655
:1049E0008A680B69DDF820809342B8BF13463360B4
:1049F00091F8432007460C460AB10133336023681F
:104A0000990642BF336802333360256815F0060506
:104A100006D104F1190AE36832689B1AAB4226DC1E
:104A200094F84320131E226818BF012392062BD44A
:104A300004F1430249463846C04701301ED023687E
:104A4000E568326803F00603042B08BFAD1AA368BB
:104A500022690CBF25EAE57500259342C4BF9B1A65
:104A6000ED1800261A34B5421AD1002008E00123BF
:104A7000524649463846C047013003D14FF0FF3017
:104A8000BDE8F0870135C6E7E1185A1C302081F8EF
:104A90004300224494F8451082F843100233C7E7DC
:104AA0000123224649463846C0470130E6D0013648
:104AB000D9E700002DE9FF470F7E0C9D782F914626
:104AC00080460C469A4601F1430207D8622F0AD865
:104AD000002F00F0D880582F00F0A38004F1420589
:104AE00084F842703AE0A7F16303152BF6D801A1D0
:104AF00051F823F04D4B0008614B0008DD4A0008D7
:104B0000DD4A0008DD4A0008DD4A0008614B000864
:104B1000DD4A0008DD4A0008DD4A0008DD4A0008D9
:104B20006D4C0008914B00084F4C0008DD4A00080E
:104B3000DD4A00088F4C0008DD4A0008914B000850
:104B4000DD4A0008DD4A0008574C00082B681A1D92
:104B50001B682A6004F1420584F842300123A3E077
:104B600020682968060601F104030AD50E682B6047
:104B7000002E03DA2D23764284F843305E480A2360
:104B800019E00E682B6010F0400F18BF36B2EFE747
:104B90002B682068191D2960010601D51E6802E0F6
:104BA0004606FBD51E8854486F2F0CBF08230A23E6
:104BB000002184F843106568A560002DA2BF21681C
:104BC00021F0040121600EB9002D4DD01546B6FB31
:104BD000F3F103FB1167C75D05F8017D3746BB4262
:104BE0000E46F4D9082B0BD12368DE0708D52369BC
:104BF00061689942DEBF302305F8013C05F1FF35BD
:104C0000521B2261CDF800A04B4603AA2146404624
:104C1000FFF7E2FE01304CD14FF0FF3004B0BDE8A9
:104C2000F087354881F845702968236851F8046B8E
:104C300029601D0614D5DF0744BF43F0200323601D
:104C40001EB9236823F0200323601023B0E72368F4
:104C500043F0200323607823284884F84530E3E7B5
:104C6000590648BFB6B2E6E71546BBE72B6826688B
:104C70006169181D286035061B6801D5196002E0BE
:104C80007006FBD51980002323611546BAE72B680F
:104C90001A1D2A601D68626800212846FBF7A0FAE9
:104CA00008B1401B606063682361002384F84330CF
:104CB000A8E723692A4649464046D0470130ABD091
:104CC00023689B0713D4E068039B9842B8BF18463B
:104CD000A4E70123324649464046D04701309BD0E5
:104CE0000135E36803995B1AAB42F2DCEBE7002580
:104CF00004F11906F5E700BF1273000823730008DA
:104D00000EB400B59CB01DAB029006906FF0004150
:104D1000094807910491094953F8042B059100684B
:104D2000019302A901F07EFB029B00221A701CB0C5
:104D30005DF804EB03B070470C0000200802FFFF91
:104D4000034611F8012B03F8012B002AF9D1704713
:104D50002DE9F74F03690C69A3420746C0F2818031
:104D6000013C01F1140800F1140505EB84030193E3
:104D700058F8243055F8242001339A424FEA840B26
:104D800008EB8409B2FBF3F631D34FF0000E404636
:104D9000AC46F24650F8042B93B206FB03E34FEA0D
:104DA000134E9BB2AAEB0303DCF800A0120C13FA1B
:104DB0008AF306FB02E20093009B4FEA124E92B286
:104DC000C2EB1A4202EB2342BDF80030814543EAB0
:104DD00002434CF8043B4FEA224ADBD255F80B3031
:104DE0002BB9019B043B9D421A462ED33C613846A9
:104DF00001F0C4F8002824DB013628464FF0000CEF
:104E000058F8042BD0F800E093B2ACEB0303120C7B
:104E100013FA8EF3C2EB1E4202EB23429BB243EA2B
:104E20000243C14540F8043B4FEA224CE8D255F812
:104E3000242005EB840322B9043B9D421A460AD381
:104E40003C61304603B0BDE8F08F1268043B002A95
:104E5000CCD1013CC7E71268043B002AF0D1013CE9
:104E6000EBE70020EEE700002DE9F04F2DED048B7D
:104E700057EC106B93B0456ADDF88080069110EE18
:104E800010AA044609920C93BB4675B9102000F095
:104E9000DDFD0246606220B9A74BEA21A74801F078
:104EA000D1FBC0E901550560C560636A196851B15D
:104EB0005A684A60012393408B60204600F01CFE34
:104EC000636A00221A603B1EAABF002323F0004B36
:104ED000C8F800309A4BBCBF0122C8F8002033EA62
:104EE0000B031BD10C9A42F20F731360CBF3130325
:104EF000334300F09285219B63B9924B22E0924BA1
:104F000001930833219A1360019813B0BDEC048B10
:104F1000BDE8F08F8B4B01930333F3E700220023AE
:104F200050465946FBF7D0FD4BEC19AB804658B1C3
:104F30000C9A01231360219B002B00F06B858348A2
:104F40001860431E0193DFE74BEC10AB10AA11A9C8
:104F5000204601F0B9F8CBF30A5508EE100A002DEF
:104F600000F0848019EE903AC3F3130343F07F57A7
:104F7000564647F44017A5F2FF35CDF83880744BFC
:104F8000002230463946FBF77FF965A3D3E90023B9
:104F9000FBF732FB64A3D3E90023FBF777F906465E
:104FA00028460F46FBF7BEFA61A3D3E90023FBF7BF
:104FB00023FB02460B4630463946FBF767F90646A7
:104FC0000F46FBF7C9FD002200900023304639460A
:104FD000FBF784FD50B10098FBF7A4FA32463B463C
:104FE000FBF772FD10B9009B013B0093009B162B51
:104FF0005AD8009A574B03EBC203D3E9002351EC74
:10500000190BFBF76BFD002850D0009B013B009370
:1050100000230B93109B5D1B6B1E059345BFC5F1D1
:1050200001030493002300234CBF05930493009BCA
:10503000002B3DDB059B009A0A9213440593002345
:105040000793069B092B00F28980052BC4BF043B04
:105050000693069BA3F10203CCBF00250125032B79
:1050600000F28780DFE803F02D3A3859DDE910536C
:105070001D4405F23243202BC1BFC3F1400305F2AA
:1050800012400BFA03F326FA00F0DABFC3F1200353
:1050900006FA03F01843FBF735FA01230646A1F19F
:1050A000F877013D0E936AE70123B2E70B90B1E771
:1050B000049B009A9B1A04935342079300230A937C
:1050C000BFE700230893099B002B55DC0123CDE9A2
:1050D00002331A4609920CE00123F3E70023099AF0
:1050E0000893009B134402930133012B0393B8BF31
:1050F0000123606A00224260042202F114069E42EB
:1051000041683DD9204600F0B7FC019000283BD112
:10511000114B02464FF4D571C0E60123DFE700BF13
:1051200061436F63A787D23FB3C8608B288AC63FAD
:10513000FB799F501344D33F417300085873000814
:105140000000F07F3D7300083473000811730008FD
:105150000000F83F48740008B373000801250023DD
:10516000069308954FF0FF33CDE902330022122356
:10517000B0E701230893F5E7099BCDE90233B8E7CF
:10518000013141605200B8E7636A019A1A60039BDB
:105190000E2B00F29D80002D00F09A80009B002BCA
:1051A00032DDB74A03F00F0302EBC303D3E90089F2
:1051B000009BD8054FEA231716D5B24B51EC190BBB
:1051C000D3E90823FBF742FB07F00F0782468B4623
:1051D0000325AC4E57B942464B4650465946FBF75D
:1051E00035FB82468B4628E00225F2E7F90708D511
:1051F00040464946D6E90023FBF7FEF901358046D3
:1052000089467F100836E5E700F09B80009B9D4FA4
:105210005E429B4B06F00F0203EBC203D3E900236F
:1052200051EC190BFBF7E8F9361182468B46002347
:105230000225002E7AD1002BD3D10B9B002B00F03E
:105240008280914B002250465946FBF747FC0028CC
:1052500079D0039B002B76D0029B002B36DD009B80
:10526000504659465F1E0022884BFBF7C5F9029E47
:1052700082468B4601352846FBF754F952465B4679
:10528000FBF7BAF9824B0022FBF700F8D046D9466B
:105290008246A1F1507B002E58D17E4B0022404621
:1052A0004946FAF7F1FF52465B4680468946FBF7CE
:1052B00033FC002840F0958252460BF100434046F3
:1052C0004946FBF70BFC002840F089825BEC19ABE8
:1052D000119B002BC0F24881009A0E2A00F34481F2
:1052E000674B03EBC203D3E90089099B002B80F2D3
:1052F000D580039B002B00F3D18040F06F82654B7B
:10530000002240464946FBF777F952465B46FBF7D9
:10531000F9FB039E3746002840F04582019D31236A
:1053200005F8013B009B0133009340E2F20705D5ED
:10533000D7E90023FBF760F9013501237610083720
:1053400077E7022579E7009F039E94E701994C4B8C
:1053500031440D91089903EBC60353E90223002958
:1053600043D04D490020FBF771FA52465B46FAF7ED
:105370008BFF019D82468B4649464046FBF7ECFB7E
:105380000646FBF7CFF802460B4640464946FAF779
:105390007BFF303605F8016B52465B4680468946F6
:1053A000FBF79CFB002863D142464B463649002060
:1053B000FAF76AFF52465B46FBF790FB002840F085
:1053C000B5800D9B9D4281D0304B002250465946FE
:1053D000FBF712F92D4B82468B4640464946002288
:1053E000FBF70AF980468946C6E750465946FBF75F
:1053F00003F90D9B019D0F9382468B46494640461B
:10540000FBF7AAFB0646FBF78DF8303602460B4643
:1054100040464946FAF738FF05F8016B0D9B9D425F
:10542000804689464FF0000224D11B4B5046594616
:10543000FAF72CFF02460B4640464946FBF76CFB49
:10544000002873D152465B4613490020FAF71CFF2F
:1054500002460B4640464946FBF740FB00283FF416
:1054600035AF0F9D6B1E0F9315F8013C302BF8D014
:10547000009749E0054BFBF7BFF880468946BDE73A
:1054800048740008207400080000F03F0000244029
:1054900000001C40000014400000E03F019D564603
:1054A0005F4642464B4630463946FBF7CFF9FBF79D
:1054B00053FB8246FBF736F842464B46FBF79CF817
:1054C00002460B46304639460AF13006FAF7DCFE52
:1054D00005F8016B019E039FAE1BB74202460B46C7
:1054E00035D1FAF7D3FE42464B4606460F46FBF748
:1054F00013FBD0B942464B4630463946FBF7E4FA37
:1055000010B11AF0010F10D1204618EE101A00F059
:10551000F3FA002300982B700C9B01301860219B3C
:10552000002B3FF4F1AC1D60EEE4009F2B461D46BE
:1055300013F8012D392A06D1019A9A42F7D101991F
:10554000302201370A701A7801321A7090E7A64BA0
:105550000022FBF751F80022002306460F46FBF716
:10556000B3FA00289DD0CFE7089A002A00F0D78030
:10557000069A012A00F3BA800E9A002A00F0B2803F
:1055800003F23343079E049D049A1A440492059A39
:1055900001211A442046059200F066FB0746002DC3
:1055A0000CDD059B002B09DDAB42049AA8BF2B46FE
:1055B000D21A0492059AED1AD31A0593079B1BB3CE
:1055C000089B002B00F0AF80002E13DD39463246D9
:1055D000204600F009FC18EE102A01460746204636
:1055E00000F058FB18EE101A8046204600F084FAAE
:1055F00008EE108A079B9A1B06D018EE101A204658
:1056000000F0F2FB08EE100A0121204600F02CFB0E
:105610000A9B002B064640F388801A460146204626
:1056200000F0E2FB069B012B064640F381804FF021
:105630000008336906EB8303186900F0C5FAC0F16E
:105640002000059B184410F01F0000F09280C0F16C
:105650002003042B40F38A80C0F11C00049B034408
:105660000493059B034405440593049B002B07DD2D
:1056700018EE101A1A46204600F010FC08EE100A28
:10568000059B002B05DD31461A46204600F006FC3E
:1056900006460B9B002B6ED018EE100A314600F028
:1056A0006DFC002867DA009B013B18EE101A00938E
:1056B0000A220023204600F041FA089B08EE100A57
:1056C000002B00F0B181002339460A22204600F069
:1056D00035FA029B002B074600F38E80069B022BB7
:1056E00051DC89E0109BC3F136034BE7039B5E1E40
:1056F000079BB342BFBF079B0796F21A0A9BB6BF30
:105700009B189E1B0A93039BB8BF0026002BB7BFB4
:10571000DDE90323DDE903359D1A002334E7079E05
:10572000049D089F3BE7079A67E7069B012B18DC5F
:10573000BAF1000F15D1CBF3130393B92BF000434B
:105740001B0D1B0583B1049B01330493059B01339F
:1057500005934FF001080A9B002B7FF46AAF0120EC
:105760006FE74FF00008F6E79846F4E73FF47DAFA7
:1057700018461C3072E7039B002B37DC069B022B7C
:1057800034DD039B0293029B6BB931460522204610
:1057900000F0D4F90146064618EE100A00F0EEFBC0
:1057A00000283FF7BBAD099B019DDB4300934FF001
:1057B00000083146204600F09FF9002F3FF4A4AEC8
:1057C000B8F1000F05D0B84503D04146204600F09F
:1057D00093F93946204600F08FF995E600263746C2
:1057E000E1E70097374699E500002440089B002B2D
:1057F00000F0CA80039B0293002D05DD39462A463E
:10580000204600F04BFB0746B8F1000F5BD07968EB
:10581000204600F031F9054628B9874B024640F290
:10582000EA21FFF73BBB3A690232920007F10C0113
:105830000C3000F013F901222946204600F02EFB1F
:10584000019B03F10109DDE90123134405930AF0EB
:105850000103B84604930746314618EE100AFFF7D5
:1058600077FA4146029000F1300A18EE100A00F073
:1058700085FB3A4603903146204600F09BFBC26808
:1058800009F1FF3B054602BB014618EE100A00F085
:1058900075FB024629462046079200F02DF9DDE906
:1058A000063243EA0201049B0B434D460FD1BAF185
:1058B000390F2AD0039B002B02DD029B03F1310A32
:1058C0008BF800A075E73846BAE70122E2E7039BB0
:1058D000002B04DB06990B4304990B4322D1002AC9
:1058E000EEDD18EE101A0122204600F0D7FA3146FC
:1058F00008EE100A00F042FB002803DCE0D11AF0A9
:10590000010FDDD0BAF1390FD7D139238BF8003030
:105910002B461D46013B15F8012C392A71D0013266
:105920001A7046E7002A07DDBAF1390FEDD00AF107
:1059300001038BF800303CE7059B09F801AC994561
:1059400047D018EE101A00230A22204600F0F6F87D
:10595000B84508EE100A4FF000034FF00A02414626
:10596000204606D100F0EAF88046074609F1010911
:1059700072E700F0E3F83946804600230A22204609
:1059800000F0DCF80746F1E7039B0293019D18EE57
:10599000100A3146FFF7DCF900F1300A019B05F8E7
:1059A00001ABEA1A029B934209DD18EE101A00239C
:1059B0000A22204600F0C2F808EE100AE7E7029B30
:1059C000002BC8BF1D46019BD8BF01251D444FF0C9
:1059D000000818EE101A0122204600F05FFA314646
:1059E00008EE100A00F0CAFA002891DC02D11AF081
:1059F000010F8DD12B461D4613F8012D302AFAD008
:105A0000D7E6019A9A4284D1009B01330093312357
:105A10001370CEE6094BFFF795BA219B002B7FF45C
:105A20006EAA074BFFF78EBA029B002BAEDC069BDB
:105A3000022B3FF7A8AEA9E7B37300081073000864
:105A4000347300080048704760010020024B014693
:105A5000186800F017BC00BF0C0000200A449142F7
:105A600000F1FF3300D1704710B511F8014B03F876
:105A7000014F9142F9D110BD70B5466A04460D46FA
:105A800076B91020FFF7E2FF0246606220B9184B9A
:105A90001848662100F0D6FDC0E901660660C660C0
:105AA000666AF36883B1636ADB6853F82500B8B9A6
:105AB000012101FA05F6721D9200204600F060FBFC
:105AC00060B1C0E901560EE021220421204600F019
:105AD00057FB636AF060DB68002BE4D1002070BDE7
